{
  "contractName": "SponsorToken",
  "abi": [
    {
      "inputs": [
        {
          "internalType": "string",
          "name": "_name",
          "type": "string"
        },
        {
          "internalType": "string",
          "name": "_symbol",
          "type": "string"
        },
        {
          "internalType": "uint8",
          "name": "_decimals",
          "type": "uint8"
        },
        {
          "internalType": "uint256",
          "name": "_fundraiseAmount",
          "type": "uint256"
        },
        {
          "internalType": "uint256",
          "name": "_interestRate",
          "type": "uint256"
        },
        {
          "internalType": "uint256",
          "name": "_fundraiseEndTime",
          "type": "uint256"
        },
        {
          "internalType": "address",
          "name": "_addressUSDC",
          "type": "address"
        },
        {
          "internalType": "address",
          "name": "_recipient",
          "type": "address"
        }
      ],
      "payable": false,
      "stateMutability": "nonpayable",
      "type": "constructor"
    },
    {
      "anonymous": false,
      "inputs": [
        {
          "indexed": true,
          "internalType": "address",
          "name": "owner",
          "type": "address"
        },
        {
          "indexed": true,
          "internalType": "address",
          "name": "spender",
          "type": "address"
        },
        {
          "indexed": false,
          "internalType": "uint256",
          "name": "value",
          "type": "uint256"
        }
      ],
      "name": "Approval",
      "type": "event"
    },
    {
      "anonymous": false,
      "inputs": [
        {
          "indexed": true,
          "internalType": "address",
          "name": "account",
          "type": "address"
        }
      ],
      "name": "MinterAdded",
      "type": "event"
    },
    {
      "anonymous": false,
      "inputs": [
        {
          "indexed": true,
          "internalType": "address",
          "name": "account",
          "type": "address"
        }
      ],
      "name": "MinterRemoved",
      "type": "event"
    },
    {
      "anonymous": false,
      "inputs": [
        {
          "indexed": true,
          "internalType": "address",
          "name": "from",
          "type": "address"
        },
        {
          "indexed": true,
          "internalType": "address",
          "name": "to",
          "type": "address"
        },
        {
          "indexed": false,
          "internalType": "uint256",
          "name": "value",
          "type": "uint256"
        }
      ],
      "name": "Transfer",
      "type": "event"
    },
    {
      "constant": false,
      "inputs": [
        {
          "internalType": "address",
          "name": "account",
          "type": "address"
        }
      ],
      "name": "addMinter",
      "outputs": [],
      "payable": false,
      "stateMutability": "nonpayable",
      "type": "function"
    },
    {
      "constant": true,
      "inputs": [
        {
          "internalType": "address",
          "name": "owner",
          "type": "address"
        },
        {
          "internalType": "address",
          "name": "spender",
          "type": "address"
        }
      ],
      "name": "allowance",
      "outputs": [
        {
          "internalType": "uint256",
          "name": "",
          "type": "uint256"
        }
      ],
      "payable": false,
      "stateMutability": "view",
      "type": "function"
    },
    {
      "constant": false,
      "inputs": [
        {
          "internalType": "address",
          "name": "spender",
          "type": "address"
        },
        {
          "internalType": "uint256",
          "name": "amount",
          "type": "uint256"
        }
      ],
      "name": "approve",
      "outputs": [
        {
          "internalType": "bool",
          "name": "",
          "type": "bool"
        }
      ],
      "payable": false,
      "stateMutability": "nonpayable",
      "type": "function"
    },
    {
      "constant": true,
      "inputs": [
        {
          "internalType": "address",
          "name": "account",
          "type": "address"
        }
      ],
      "name": "balanceOf",
      "outputs": [
        {
          "internalType": "uint256",
          "name": "",
          "type": "uint256"
        }
      ],
      "payable": false,
      "stateMutability": "view",
      "type": "function"
    },
    {
      "constant": true,
      "inputs": [],
      "name": "decimals",
      "outputs": [
        {
          "internalType": "uint8",
          "name": "",
          "type": "uint8"
        }
      ],
      "payable": false,
      "stateMutability": "view",
      "type": "function"
    },
    {
      "constant": false,
      "inputs": [
        {
          "internalType": "address",
          "name": "spender",
          "type": "address"
        },
        {
          "internalType": "uint256",
          "name": "subtractedValue",
          "type": "uint256"
        }
      ],
      "name": "decreaseAllowance",
      "outputs": [
        {
          "internalType": "bool",
          "name": "",
          "type": "bool"
        }
      ],
      "payable": false,
      "stateMutability": "nonpayable",
      "type": "function"
    },
    {
      "constant": false,
      "inputs": [
        {
          "internalType": "address",
          "name": "spender",
          "type": "address"
        },
        {
          "internalType": "uint256",
          "name": "addedValue",
          "type": "uint256"
        }
      ],
      "name": "increaseAllowance",
      "outputs": [
        {
          "internalType": "bool",
          "name": "",
          "type": "bool"
        }
      ],
      "payable": false,
      "stateMutability": "nonpayable",
      "type": "function"
    },
    {
      "constant": true,
      "inputs": [
        {
          "internalType": "address",
          "name": "account",
          "type": "address"
        }
      ],
      "name": "isMinter",
      "outputs": [
        {
          "internalType": "bool",
          "name": "",
          "type": "bool"
        }
      ],
      "payable": false,
      "stateMutability": "view",
      "type": "function"
    },
    {
      "constant": false,
      "inputs": [
        {
          "internalType": "address",
          "name": "account",
          "type": "address"
        },
        {
          "internalType": "uint256",
          "name": "amount",
          "type": "uint256"
        }
      ],
      "name": "mint",
      "outputs": [
        {
          "internalType": "bool",
          "name": "",
          "type": "bool"
        }
      ],
      "payable": false,
      "stateMutability": "nonpayable",
      "type": "function"
    },
    {
      "constant": true,
      "inputs": [],
      "name": "name",
      "outputs": [
        {
          "internalType": "string",
          "name": "",
          "type": "string"
        }
      ],
      "payable": false,
      "stateMutability": "view",
      "type": "function"
    },
    {
      "constant": false,
      "inputs": [],
      "name": "renounceMinter",
      "outputs": [],
      "payable": false,
      "stateMutability": "nonpayable",
      "type": "function"
    },
    {
      "constant": true,
      "inputs": [],
      "name": "symbol",
      "outputs": [
        {
          "internalType": "string",
          "name": "",
          "type": "string"
        }
      ],
      "payable": false,
      "stateMutability": "view",
      "type": "function"
    },
    {
      "constant": true,
      "inputs": [],
      "name": "totalSupply",
      "outputs": [
        {
          "internalType": "uint256",
          "name": "",
          "type": "uint256"
        }
      ],
      "payable": false,
      "stateMutability": "view",
      "type": "function"
    },
    {
      "constant": false,
      "inputs": [
        {
          "internalType": "address",
          "name": "recipient",
          "type": "address"
        },
        {
          "internalType": "uint256",
          "name": "amount",
          "type": "uint256"
        }
      ],
      "name": "transfer",
      "outputs": [
        {
          "internalType": "bool",
          "name": "",
          "type": "bool"
        }
      ],
      "payable": false,
      "stateMutability": "nonpayable",
      "type": "function"
    },
    {
      "constant": false,
      "inputs": [
        {
          "internalType": "address",
          "name": "sender",
          "type": "address"
        },
        {
          "internalType": "address",
          "name": "recipient",
          "type": "address"
        },
        {
          "internalType": "uint256",
          "name": "amount",
          "type": "uint256"
        }
      ],
      "name": "transferFrom",
      "outputs": [
        {
          "internalType": "bool",
          "name": "",
          "type": "bool"
        }
      ],
      "payable": false,
      "stateMutability": "nonpayable",
      "type": "function"
    },
    {
      "constant": true,
      "inputs": [],
      "name": "getFundraiseAmount",
      "outputs": [
        {
          "internalType": "uint256",
          "name": "",
          "type": "uint256"
        }
      ],
      "payable": false,
      "stateMutability": "view",
      "type": "function"
    },
    {
      "constant": true,
      "inputs": [],
      "name": "getInterestRate",
      "outputs": [
        {
          "internalType": "uint256",
          "name": "",
          "type": "uint256"
        }
      ],
      "payable": false,
      "stateMutability": "view",
      "type": "function"
    },
    {
      "constant": true,
      "inputs": [],
      "name": "getContractBalanceUSDC",
      "outputs": [
        {
          "internalType": "uint256",
          "name": "",
          "type": "uint256"
        }
      ],
      "payable": false,
      "stateMutability": "view",
      "type": "function"
    },
    {
      "constant": true,
      "inputs": [],
      "name": "getEndTimeFundraiser",
      "outputs": [
        {
          "internalType": "uint256",
          "name": "",
          "type": "uint256"
        }
      ],
      "payable": false,
      "stateMutability": "view",
      "type": "function"
    },
    {
      "constant": true,
      "inputs": [],
      "name": "getStartTimeFundraiser",
      "outputs": [
        {
          "internalType": "uint256",
          "name": "",
          "type": "uint256"
        }
      ],
      "payable": false,
      "stateMutability": "view",
      "type": "function"
    },
    {
      "constant": true,
      "inputs": [],
      "name": "getTotalLoanPayment",
      "outputs": [
        {
          "internalType": "uint256",
          "name": "",
          "type": "uint256"
        }
      ],
      "payable": false,
      "stateMutability": "view",
      "type": "function"
    },
    {
      "constant": true,
      "inputs": [
        {
          "internalType": "address",
          "name": "lender",
          "type": "address"
        }
      ],
      "name": "getCurrentContribution",
      "outputs": [
        {
          "internalType": "uint256",
          "name": "",
          "type": "uint256"
        }
      ],
      "payable": false,
      "stateMutability": "view",
      "type": "function"
    },
    {
      "constant": true,
      "inputs": [],
      "name": "getLoanState",
      "outputs": [
        {
          "internalType": "enum SponsorToken.States",
          "name": "",
          "type": "uint8"
        }
      ],
      "payable": false,
      "stateMutability": "view",
      "type": "function"
    },
    {
      "constant": false,
      "inputs": [
        {
          "internalType": "uint256",
          "name": "amount",
          "type": "uint256"
        }
      ],
      "name": "contribute",
      "outputs": [
        {
          "internalType": "bool",
          "name": "",
          "type": "bool"
        }
      ],
      "payable": false,
      "stateMutability": "nonpayable",
      "type": "function"
    },
    {
      "constant": true,
      "inputs": [],
      "name": "sponsorTokenToUSDC",
      "outputs": [
        {
          "internalType": "uint256",
          "name": "",
          "type": "uint256"
        }
      ],
      "payable": false,
      "stateMutability": "view",
      "type": "function"
    }
  ],
  "bytecode": "0x60806040523480156200001157600080fd5b5060405162002a6738038062002a6783398181016040526101008110156200003857600080fd5b81019080805160405193929190846401000000008211156200005957600080fd5b838201915060208201858111156200007057600080fd5b82518660018202830111640100000000821117156200008e57600080fd5b8083526020830192505050908051906020019080838360005b83811015620000c4578082015181840152602081019050620000a7565b50505050905090810190601f168015620000f25780820380516001836020036101000a031916815260200191505b50604052602001805160405193929190846401000000008211156200011657600080fd5b838201915060208201858111156200012d57600080fd5b82518660018202830111640100000000821117156200014b57600080fd5b8083526020830192505050908051906020019080838360005b838110156200018157808201518184015260208101905062000164565b50505050905090810190601f168015620001af5780820380516001836020036101000a031916815260200191505b50604052602001805190602001909291908051906020019092919080519060200190929190805190602001909291908051906020019092919080519060200190929190505050878787620002186200020c6200033960201b60201c565b6200034160201b60201c565b82600490805190602001906200023092919062000566565b5081600590805190602001906200024992919062000566565b5080600660006101000a81548160ff021916908360ff160217905550505050846007819055508360088190555081600d60006101000a81548173ffffffffffffffffffffffffffffffffffffffff021916908373ffffffffffffffffffffffffffffffffffffffff16021790555080600c60006101000a81548173ffffffffffffffffffffffffffffffffffffffff021916908373ffffffffffffffffffffffffffffffffffffffff1602179055504260098190555082600a819055506000600d60146101000a81548160ff021916908360038111156200032657fe5b0217905550505050505050505062000615565b600033905090565b6200035c816003620003a260201b62001f481790919060201c565b8073ffffffffffffffffffffffffffffffffffffffff167f6ae172837ea30b801fbfcdd4108aa1d5bf8ff775444fd70256b44e6bf3dfc3f660405160405180910390a250565b620003b482826200048660201b60201c565b1562000428576040517f08c379a000000000000000000000000000000000000000000000000000000000815260040180806020018281038252601f8152602001807f526f6c65733a206163636f756e7420616c72656164792068617320726f6c650081525060200191505060405180910390fd5b60018260000160008373ffffffffffffffffffffffffffffffffffffffff1673ffffffffffffffffffffffffffffffffffffffff16815260200190815260200160002060006101000a81548160ff0219169083151502179055505050565b60008073ffffffffffffffffffffffffffffffffffffffff168273ffffffffffffffffffffffffffffffffffffffff1614156200050f576040517f08c379a000000000000000000000000000000000000000000000000000000000815260040180806020018281038252602281526020018062002a456022913960400191505060405180910390fd5b8260000160008373ffffffffffffffffffffffffffffffffffffffff1673ffffffffffffffffffffffffffffffffffffffff16815260200190815260200160002060009054906101000a900460ff16905092915050565b828054600181600116156101000203166002900490600052602060002090601f016020900481019282601f10620005a957805160ff1916838001178555620005da565b82800160010185558215620005da579182015b82811115620005d9578251825591602001919060010190620005bc565b5b509050620005e99190620005ed565b5090565b6200061291905b808211156200060e576000816000905550600101620005f4565b5090565b90565b61242080620006256000396000f3fe608060405234801561001057600080fd5b50600436106101735760003560e01c806370a08231116100de578063a9059cbb11610097578063dd62ed3e11610071578063dd62ed3e14610788578063eef656b814610800578063f1139caa1461081e578063f48004671461083c57610173565b8063a9059cbb14610680578063aa271e1a146106e6578063c1cbbca71461074257610173565b806370a08231146104c557806395d89b411461051d578063983b2d56146105a057806398650275146105e45780639e9f669c146105ee578063a457c2d71461061a57610173565b8063313ce56711610130578063313ce5671461034157806339509351146103655780633a367aea146103cb57806340c10f19146103e957806341ee6ab21461044f5780635257b566146104a757610173565b806306fdde03146101785780630729019b146101fb578063095ea7b31461021957806318160ddd1461027f57806323b872dd1461029d5780632f1961cd14610323575b600080fd5b61018061085a565b6040518080602001828103825283818151815260200191508051906020019080838360005b838110156101c05780820151818401526020810190506101a5565b50505050905090810190601f1680156101ed5780820380516001836020036101000a031916815260200191505b509250505060405180910390f35b6102036108fc565b6040518082815260200191505060405180910390f35b6102656004803603604081101561022f57600080fd5b81019080803573ffffffffffffffffffffffffffffffffffffffff16906020019092919080359060200190929190505050610916565b604051808215151515815260200191505060405180910390f35b610287610934565b6040518082815260200191505060405180910390f35b610309600480360360608110156102b357600080fd5b81019080803573ffffffffffffffffffffffffffffffffffffffff169060200190929190803573ffffffffffffffffffffffffffffffffffffffff1690602001909291908035906020019092919050505061093e565b604051808215151515815260200191505060405180910390f35b61032b610a17565b6040518082815260200191505060405180910390f35b610349610a21565b604051808260ff1660ff16815260200191505060405180910390f35b6103b16004803603604081101561037b57600080fd5b81019080803573ffffffffffffffffffffffffffffffffffffffff16906020019092919080359060200190929190505050610a38565b604051808215151515815260200191505060405180910390f35b6103d3610aeb565b6040518082815260200191505060405180910390f35b610435600480360360408110156103ff57600080fd5b81019080803573ffffffffffffffffffffffffffffffffffffffff16906020019092919080359060200190929190505050610af5565b604051808215151515815260200191505060405180910390f35b6104916004803603602081101561046557600080fd5b81019080803573ffffffffffffffffffffffffffffffffffffffff169060200190929190505050610b70565b6040518082815260200191505060405180910390f35b6104af610bb9565b6040518082815260200191505060405180910390f35b610507600480360360208110156104db57600080fd5b81019080803573ffffffffffffffffffffffffffffffffffffffff169060200190929190505050610bc3565b6040518082815260200191505060405180910390f35b610525610c0b565b6040518080602001828103825283818151815260200191508051906020019080838360005b8381101561056557808201518184015260208101905061054a565b50505050905090810190601f1680156105925780820380516001836020036101000a031916815260200191505b509250505060405180910390f35b6105e2600480360360208110156105b657600080fd5b81019080803573ffffffffffffffffffffffffffffffffffffffff169060200190929190505050610cad565b005b6105ec610d1e565b005b6105f6610d30565b6040518082600381111561060657fe5b60ff16815260200191505060405180910390f35b6106666004803603604081101561063057600080fd5b81019080803573ffffffffffffffffffffffffffffffffffffffff16906020019092919080359060200190929190505050610d47565b604051808215151515815260200191505060405180910390f35b6106cc6004803603604081101561069657600080fd5b81019080803573ffffffffffffffffffffffffffffffffffffffff16906020019092919080359060200190929190505050610e14565b604051808215151515815260200191505060405180910390f35b610728600480360360208110156106fc57600080fd5b81019080803573ffffffffffffffffffffffffffffffffffffffff169060200190929190505050610e32565b604051808215151515815260200191505060405180910390f35b61076e6004803603602081101561075857600080fd5b8101908080359060200190929190505050610e4f565b604051808215151515815260200191505060405180910390f35b6107ea6004803603604081101561079e57600080fd5b81019080803573ffffffffffffffffffffffffffffffffffffffff169060200190929190803573ffffffffffffffffffffffffffffffffffffffff1690602001909291905050506110d3565b6040518082815260200191505060405180910390f35b61080861115a565b6040518082815260200191505060405180910390f35b610826611164565b6040518082815260200191505060405180910390f35b61084461116e565b6040518082815260200191505060405180910390f35b606060048054600181600116156101000203166002900480601f0160208091040260200160405190810160405280929190818152602001828054600181600116156101000203166002900480156108f25780601f106108c7576101008083540402835291602001916108f2565b820191906000526020600020905b8154815290600101906020018083116108d557829003601f168201915b5050505050905090565b6000610906610934565b6010548161091057fe5b04905090565b600061092a610923611178565b8484611180565b6001905092915050565b6000600254905090565b600061094b848484611377565b610a0c84610957611178565b610a078560405180606001604052806028815260200161233460289139600160008b73ffffffffffffffffffffffffffffffffffffffff1673ffffffffffffffffffffffffffffffffffffffff16815260200190815260200160002060006109bd611178565b73ffffffffffffffffffffffffffffffffffffffff1673ffffffffffffffffffffffffffffffffffffffff1681526020019081526020016000205461162d9092919063ffffffff16565b611180565b600190509392505050565b6000600954905090565b6000600660009054906101000a900460ff16905090565b6000610ae1610a45611178565b84610adc8560016000610a56611178565b73ffffffffffffffffffffffffffffffffffffffff1673ffffffffffffffffffffffffffffffffffffffff16815260200190815260200160002060008973ffffffffffffffffffffffffffffffffffffffff1673ffffffffffffffffffffffffffffffffffffffff168152602001908152602001600020546116ed90919063ffffffff16565b611180565b6001905092915050565b6000600e54905090565b6000610b07610b02611178565b610e32565b610b5c576040517f08c379a00000000000000000000000000000000000000000000000000000000081526004018080602001828103825260308152602001806122e36030913960400191505060405180910390fd5b610b668383611775565b6001905092915050565b6000601160008373ffffffffffffffffffffffffffffffffffffffff1673ffffffffffffffffffffffffffffffffffffffff168152602001908152602001600020549050919050565b6000600854905090565b60008060008373ffffffffffffffffffffffffffffffffffffffff1673ffffffffffffffffffffffffffffffffffffffff168152602001908152602001600020549050919050565b606060058054600181600116156101000203166002900480601f016020809104026020016040519081016040528092919081815260200182805460018160011615610100020316600290048015610ca35780601f10610c7857610100808354040283529160200191610ca3565b820191906000526020600020905b815481529060010190602001808311610c8657829003601f168201915b5050505050905090565b610cbd610cb8611178565b610e32565b610d12576040517f08c379a00000000000000000000000000000000000000000000000000000000081526004018080602001828103825260308152602001806122e36030913960400191505060405180910390fd5b610d1b81611930565b50565b610d2e610d29611178565b61198a565b565b6000600d60149054906101000a900460ff16905090565b6000610e0a610d54611178565b84610e05856040518060600160405280602581526020016123c76025913960016000610d7e611178565b73ffffffffffffffffffffffffffffffffffffffff1673ffffffffffffffffffffffffffffffffffffffff16815260200190815260200160002060008a73ffffffffffffffffffffffffffffffffffffffff1673ffffffffffffffffffffffffffffffffffffffff1681526020019081526020016000205461162d9092919063ffffffff16565b611180565b6001905092915050565b6000610e28610e21611178565b8484611377565b6001905092915050565b6000610e488260036119e490919063ffffffff16565b9050919050565b6000806003811115610e5d57fe5b600d60149054906101000a900460ff166003811115610e7857fe5b14610e8257600080fd5b600754600e5483011115610e9557600080fd5b610e9d611ac2565b15610ecf57610eaa611acf565b6003600d60146101000a81548160ff02191690836003811115610ec957fe5b02179055505b600d60009054906101000a900473ffffffffffffffffffffffffffffffffffffffff1673ffffffffffffffffffffffffffffffffffffffff166323b872dd3330856040518463ffffffff1660e01b8152600401808473ffffffffffffffffffffffffffffffffffffffff1673ffffffffffffffffffffffffffffffffffffffff1681526020018373ffffffffffffffffffffffffffffffffffffffff1673ffffffffffffffffffffffffffffffffffffffff1681526020018281526020019350505050600060405180830381600087803b158015610fac57600080fd5b505af1158015610fc0573d6000803e3d6000fd5b5050505060123390806001815401808255809150509060018203906000526020600020016000909192909190916101000a81548173ffffffffffffffffffffffffffffffffffffffff021916908373ffffffffffffffffffffffffffffffffffffffff1602179055505081601160003373ffffffffffffffffffffffffffffffffffffffff1673ffffffffffffffffffffffffffffffffffffffff1681526020019081526020016000206000828254019250508190555081600e6000828254019250508190555061108f611d27565b156110ca57600e54600f819055506110a5611d36565b6001600d60146101000a81548160ff021916908360038111156110c457fe5b02179055505b60019050919050565b6000600160008473ffffffffffffffffffffffffffffffffffffffff1673ffffffffffffffffffffffffffffffffffffffff16815260200190815260200160002060008373ffffffffffffffffffffffffffffffffffffffff1673ffffffffffffffffffffffffffffffffffffffff16815260200190815260200160002054905092915050565b6000600754905090565b6000600a54905090565b6000601054905090565b600033905090565b600073ffffffffffffffffffffffffffffffffffffffff168373ffffffffffffffffffffffffffffffffffffffff161415611206576040517f08c379a00000000000000000000000000000000000000000000000000000000081526004018080602001828103825260248152602001806123a36024913960400191505060405180910390fd5b600073ffffffffffffffffffffffffffffffffffffffff168273ffffffffffffffffffffffffffffffffffffffff16141561128c576040517f08c379a000000000000000000000000000000000000000000000000000000000815260040180806020018281038252602281526020018061229b6022913960400191505060405180910390fd5b80600160008573ffffffffffffffffffffffffffffffffffffffff1673ffffffffffffffffffffffffffffffffffffffff16815260200190815260200160002060008473ffffffffffffffffffffffffffffffffffffffff1673ffffffffffffffffffffffffffffffffffffffff168152602001908152602001600020819055508173ffffffffffffffffffffffffffffffffffffffff168373ffffffffffffffffffffffffffffffffffffffff167f8c5be1e5ebec7d5bd14f71427d1e84f3dd0314c0f7b2291e5b200ac8c7c3b925836040518082815260200191505060405180910390a3505050565b600073ffffffffffffffffffffffffffffffffffffffff168373ffffffffffffffffffffffffffffffffffffffff1614156113fd576040517f08c379a000000000000000000000000000000000000000000000000000000000815260040180806020018281038252602581526020018061237e6025913960400191505060405180910390fd5b600073ffffffffffffffffffffffffffffffffffffffff168273ffffffffffffffffffffffffffffffffffffffff161415611483576040517f08c379a00000000000000000000000000000000000000000000000000000000081526004018080602001828103825260238152602001806122786023913960400191505060405180910390fd5b6114ee816040518060600160405280602681526020016122bd602691396000808773ffffffffffffffffffffffffffffffffffffffff1673ffffffffffffffffffffffffffffffffffffffff1681526020019081526020016000205461162d9092919063ffffffff16565b6000808573ffffffffffffffffffffffffffffffffffffffff1673ffffffffffffffffffffffffffffffffffffffff16815260200190815260200160002081905550611581816000808573ffffffffffffffffffffffffffffffffffffffff1673ffffffffffffffffffffffffffffffffffffffff168152602001908152602001600020546116ed90919063ffffffff16565b6000808473ffffffffffffffffffffffffffffffffffffffff1673ffffffffffffffffffffffffffffffffffffffff168152602001908152602001600020819055508173ffffffffffffffffffffffffffffffffffffffff168373ffffffffffffffffffffffffffffffffffffffff167fddf252ad1be2c89b69c2b068fc378daa952ba7f163c4a11628f55a4df523b3ef836040518082815260200191505060405180910390a3505050565b60008383111582906116da576040517f08c379a00000000000000000000000000000000000000000000000000000000081526004018080602001828103825283818151815260200191508051906020019080838360005b8381101561169f578082015181840152602081019050611684565b50505050905090810190601f1680156116cc5780820380516001836020036101000a031916815260200191505b509250505060405180910390fd5b5060008385039050809150509392505050565b60008082840190508381101561176b576040517f08c379a000000000000000000000000000000000000000000000000000000000815260040180806020018281038252601b8152602001807f536166654d6174683a206164646974696f6e206f766572666c6f77000000000081525060200191505060405180910390fd5b8091505092915050565b600073ffffffffffffffffffffffffffffffffffffffff168273ffffffffffffffffffffffffffffffffffffffff161415611818576040517f08c379a000000000000000000000000000000000000000000000000000000000815260040180806020018281038252601f8152602001807f45524332303a206d696e7420746f20746865207a65726f20616464726573730081525060200191505060405180910390fd5b61182d816002546116ed90919063ffffffff16565b600281905550611884816000808573ffffffffffffffffffffffffffffffffffffffff1673ffffffffffffffffffffffffffffffffffffffff168152602001908152602001600020546116ed90919063ffffffff16565b6000808473ffffffffffffffffffffffffffffffffffffffff1673ffffffffffffffffffffffffffffffffffffffff168152602001908152602001600020819055508173ffffffffffffffffffffffffffffffffffffffff16600073ffffffffffffffffffffffffffffffffffffffff167fddf252ad1be2c89b69c2b068fc378daa952ba7f163c4a11628f55a4df523b3ef836040518082815260200191505060405180910390a35050565b611944816003611f4890919063ffffffff16565b8073ffffffffffffffffffffffffffffffffffffffff167f6ae172837ea30b801fbfcdd4108aa1d5bf8ff775444fd70256b44e6bf3dfc3f660405160405180910390a250565b61199e81600361202390919063ffffffff16565b8073ffffffffffffffffffffffffffffffffffffffff167fe94479a9f7e1952cc78f2d6baab678adc1b772d936c6583def489e524cb6669260405160405180910390a250565b60008073ffffffffffffffffffffffffffffffffffffffff168273ffffffffffffffffffffffffffffffffffffffff161415611a6b576040517f08c379a000000000000000000000000000000000000000000000000000000000815260040180806020018281038252602281526020018061235c6022913960400191505060405180910390fd5b8260000160008373ffffffffffffffffffffffffffffffffffffffff1673ffffffffffffffffffffffffffffffffffffffff16815260200190815260200160002060009054906101000a900460ff16905092915050565b6000600a54421015905090565b60006003811115611adc57fe5b600d60149054906101000a900460ff166003811115611af757fe5b14611b0157600080fd5b60008090505b601280549050811015611d1557600d60009054906101000a900473ffffffffffffffffffffffffffffffffffffffff1673ffffffffffffffffffffffffffffffffffffffff1663a9059cbb60128381548110611b5f57fe5b9060005260206000200160009054906101000a900473ffffffffffffffffffffffffffffffffffffffff166011600060128681548110611b9b57fe5b9060005260206000200160009054906101000a900473ffffffffffffffffffffffffffffffffffffffff1673ffffffffffffffffffffffffffffffffffffffff1673ffffffffffffffffffffffffffffffffffffffff168152602001908152602001600020546040518363ffffffff1660e01b8152600401808373ffffffffffffffffffffffffffffffffffffffff1673ffffffffffffffffffffffffffffffffffffffff16815260200182815260200192505050600060405180830381600087803b158015611c6a57600080fd5b505af1158015611c7e573d6000803e3d6000fd5b505050506011600060128381548110611c9357fe5b9060005260206000200160009054906101000a900473ffffffffffffffffffffffffffffffffffffffff1673ffffffffffffffffffffffffffffffffffffffff1673ffffffffffffffffffffffffffffffffffffffff16815260200190815260200160002054600e600082825403925050819055508080600101915050611b07565b6000600e5414611d2457600080fd5b50565b6000600754600e541015905090565b60006003811115611d4357fe5b600d60149054906101000a900460ff166003811115611d5e57fe5b14611d6857600080fd5b611d706120e0565b611d7957600080fd5b60008090505b601280549050811015611e5157611e4360128281548110611d9c57fe5b9060005260206000200160009054906101000a900473ffffffffffffffffffffffffffffffffffffffff166011600060128581548110611dd857fe5b9060005260206000200160009054906101000a900473ffffffffffffffffffffffffffffffffffffffff1673ffffffffffffffffffffffffffffffffffffffff1673ffffffffffffffffffffffffffffffffffffffff16815260200190815260200160002054610af5565b508080600101915050611d7f565b600d60009054906101000a900473ffffffffffffffffffffffffffffffffffffffff1673ffffffffffffffffffffffffffffffffffffffff1663a9059cbb600c60009054906101000a900473ffffffffffffffffffffffffffffffffffffffff16600e546040518363ffffffff1660e01b8152600401808373ffffffffffffffffffffffffffffffffffffffff1673ffffffffffffffffffffffffffffffffffffffff16815260200182815260200192505050600060405180830381600087803b158015611f1e57600080fd5b505af1158015611f32573d6000803e3d6000fd5b505050506000600e8190555042600b8190555050565b611f5282826119e4565b15611fc5576040517f08c379a000000000000000000000000000000000000000000000000000000000815260040180806020018281038252601f8152602001807f526f6c65733a206163636f756e7420616c72656164792068617320726f6c650081525060200191505060405180910390fd5b60018260000160008373ffffffffffffffffffffffffffffffffffffffff1673ffffffffffffffffffffffffffffffffffffffff16815260200190815260200160002060006101000a81548160ff0219169083151502179055505050565b61202d82826119e4565b612082576040517f08c379a00000000000000000000000000000000000000000000000000000000081526004018080602001828103825260218152602001806123136021913960400191505060405180910390fd5b60008260000160008373ffffffffffffffffffffffffffffffffffffffff1673ffffffffffffffffffffffffffffffffffffffff16815260200190815260200160002060006101000a81548160ff0219169083151502179055505050565b6000806000905060008090505b60128054905081101561218257601160006012838154811061210b57fe5b9060005260206000200160009054906101000a900473ffffffffffffffffffffffffffffffffffffffff1673ffffffffffffffffffffffffffffffffffffffff1673ffffffffffffffffffffffffffffffffffffffff168152602001908152602001600020548201915080806001019150506120ed565b600e54821480156122705750600d60009054906101000a900473ffffffffffffffffffffffffffffffffffffffff1673ffffffffffffffffffffffffffffffffffffffff166370a08231306040518263ffffffff1660e01b8152600401808273ffffffffffffffffffffffffffffffffffffffff1673ffffffffffffffffffffffffffffffffffffffff168152602001915050602060405180830381600087803b15801561222f57600080fd5b505af1158015612243573d6000803e3d6000fd5b505050506040513d602081101561225957600080fd5b8101908080519060200190929190505050600e5410155b925050509056fe45524332303a207472616e7366657220746f20746865207a65726f206164647265737345524332303a20617070726f766520746f20746865207a65726f206164647265737345524332303a207472616e7366657220616d6f756e7420657863656564732062616c616e63654d696e746572526f6c653a2063616c6c657220646f6573206e6f74206861766520746865204d696e74657220726f6c65526f6c65733a206163636f756e7420646f6573206e6f74206861766520726f6c6545524332303a207472616e7366657220616d6f756e74206578636565647320616c6c6f77616e6365526f6c65733a206163636f756e7420697320746865207a65726f206164647265737345524332303a207472616e736665722066726f6d20746865207a65726f206164647265737345524332303a20617070726f76652066726f6d20746865207a65726f206164647265737345524332303a2064656372656173656420616c6c6f77616e63652062656c6f77207a65726fa265627a7a72315820e65c586f873e2f15a685b12e18d4db06db81a306f3c390e5790c16ba75aaeb2f64736f6c63430005100032526f6c65733a206163636f756e7420697320746865207a65726f2061646472657373",
  "source": "pragma solidity ^0.5.0;\n \nimport \"@openzeppelin/contracts/token/ERC20/ERC20.sol\";\nimport \"@openzeppelin/contracts/token/ERC20/ERC20Mintable.sol\";\nimport \"@openzeppelin/contracts/token/ERC20/ERC20Detailed.sol\";\n\n// For USDC Token contract\ncontract ERC20Token {\n  function transferFrom(address from, address to, uint value) public;\n  function transfer(address recipient, uint256 amount) public;\n  function balanceOf(address account) public returns (uint256);\n}\n \ncontract SponsorToken is ERC20, ERC20Mintable, ERC20Detailed{\n\t// Metadata about fundraise\n    uint256 private fundraiseAmount;\n   \tuint256 private interestRate;\n\n    uint256 private fundraiseStartTime;\n    uint256 private fundraiseEndTime;\n\n    uint256 private openLoanStartTime;\n\n   \taddress private recipient;\n\n    ERC20Token contractUSDC;\n\n   \t// Fundraise states\n   \tenum States { Fundraising, OpenLoan, ConvertLoan, ClosedLoan }\n\n   \t// Current state\n   \tStates currentState;\n   \t// How much USDC the contract owns (through contract interaction, no transfers)\n    uint256 contractBalanceUSDC;\n    // Total USDC that was loaned at end of Fundraising/ start of OpenLoan\n   \tuint256 startLoanBalanceUSDC;\n   \t// Total USDC that was paid by recipient at end of OpenLoan/ start of ConvertLoan\n   \tuint256 totalLoanPayment;\n\n   \tmapping (address => uint256) private contributedUSDC;\n   \taddress[] lenders;\n\n    constructor(\n    \tstring memory _name,\n    \tstring memory _symbol,\n    \tuint8 _decimals,\n    \tuint256 _fundraiseAmount,\n    \tuint256 _interestRate,\n    \tuint256 _fundraiseEndTime,\n    \taddress _addressUSDC,\n    \taddress _recipient\n    )\n    \tERC20Detailed(\n    \t\t_name,\n    \t\t_symbol,\n    \t\t_decimals\n    \t) \n    \tpublic \n    { \n      // Set metadata\n      fundraiseAmount = _fundraiseAmount;\n      interestRate = _interestRate;\n      contractUSDC = ERC20Token(_addressUSDC);\n      recipient = _recipient;\n\n      // Start time of fundraiser is unix time of block\n      fundraiseStartTime = now;\n      fundraiseEndTime = _fundraiseEndTime;\n\n      // Init state\n      currentState = States.Fundraising;\n   \t}\n    \n    ///*******************///\n    ///  Getter methods   ///\n    ///*******************///\n\n    function getFundraiseAmount() public view returns (uint256) {\n    \treturn fundraiseAmount;\n    }\n\n\tfunction getInterestRate() public view returns (uint256) {\n    \treturn interestRate;\n    }\n\n    function getContractBalanceUSDC() public view returns (uint256) {\n    \treturn contractBalanceUSDC;\n    }\n\n    function getEndTimeFundraiser() public view returns (uint256) {\n    \treturn fundraiseEndTime;\n    }\n\n    function getStartTimeFundraiser() public view returns (uint256) {\n    \treturn fundraiseStartTime;\n    }\n\n    function getTotalLoanPayment() public view returns (uint256) {\n    \treturn totalLoanPayment;\n    }\n\n    function getCurrentContribution(address lender) public view returns (uint256) {\n    \treturn contributedUSDC[lender];\n    }\n    \n    function getLoanState() public view returns (States){\n    \treturn currentState;\n    }\n    ///************************///\n    ///    State Transitions   ///\n    ///************************///\n    function enoughFundsRaised() private view returns (bool) {\n        return (contractBalanceUSDC >= fundraiseAmount);\n    }\n\n    function isFundraiseOver() private view returns (bool) {\n        return (now >= fundraiseEndTime);\n    }\n    \n    function isLoanRepaid() private view returns (bool) {\n        return (contractBalanceUSDC >= calcLoanRepayment());\n    }\n\n    function allSponsorTokensReturned() private view returns (bool) {\n    \treturn (balanceOf(address(this)) == totalSupply());\n    }\n\n    ///*************************///\n    ///  Token Moving Methods   ///\n    ///*************************///\n\n    // Function for a lender to contribute USDC to fundraiser\n    function contribute(uint256 amount) public returns (bool) {\n        require (currentState == States.Fundraising);\n        require (amount + contractBalanceUSDC <= fundraiseAmount);\n\n        if (isFundraiseOver()) {\n        \t// Fundraise failed, returned USDC to original lenders\n      \t    returnContributions();\n\n            currentState = States.ClosedLoan;\n        }\n\n        // TransferFrom USDC amount into contract address\n        contractUSDC.transferFrom(msg.sender, address(this), amount);\n\n        lenders.push(msg.sender);\n        // Default value for mapping value uint is 0, so no need to check if value exists or not\n        contributedUSDC[msg.sender] += amount;\n        contractBalanceUSDC += amount;\n\n        if (enoughFundsRaised()) {\n        \t// Set total amount of USDC funds raised\n        \tstartLoanBalanceUSDC = contractBalanceUSDC;\n        \tkickOffLoan();\n\n      \t    currentState = States.OpenLoan;\n        }\n        \n        return true;\n    }\n\n    // In case of failed fundraise return funds to lenders\n    function returnContributions() private {\n    \trequire (currentState == States.Fundraising);\n        uint i;\n    \tfor(i = 0; i < lenders.length; i++){\n    \t\tcontractUSDC.transfer(lenders[i], contributedUSDC[lenders[i]]);\n    \t\tcontractBalanceUSDC -= contributedUSDC[lenders[i]];\n    \t}\n\n    \trequire (contractBalanceUSDC == 0);\n    }\n\n    function kickOffLoan() private {\n    \trequire (currentState == States.Fundraising);\n        require (checkUSDCAccounting());\n\n        // Mint tokens to each lender equivalent to amount of USDC they put in\n      \tuint i;\n    \tfor(i = 0; i < lenders.length; i++){\n    \t\tmint(lenders[i], contributedUSDC[lenders[i]]);\n    \t}\n    \t// TODO: Turn off minting here\n\n    \t// Send USDC Loan to recipient\n    \tcontractUSDC.transfer(recipient, contractBalanceUSDC);\n    \tcontractBalanceUSDC = 0;\n\n    \topenLoanStartTime = now;\n    }\n\n    function payLoan(uint256 amount) private {\n    \trequire (currentState == States.OpenLoan);\n    \t// Only allow recipient to payback loan\n    \trequire (msg.sender == recipient);\n\n\t\tcontractUSDC.transferFrom(address(this), msg.sender, amount);\n\t\tcontractBalanceUSDC += 0;\n\n\t\tif (isLoanRepaid()) {\n\t\t\t// Set total amount of USDC paid back\n\t\t\ttotalLoanPayment = contractBalanceUSDC;\n\n\t\t\tcurrentState = States.ConvertLoan;\n\t\t}\n    }\n\n    function convertSponsorToken(uint256 amount) private {\n    \trequire (currentState == States.ConvertLoan);\n    \trequire (contractBalanceUSDC >= amount);\n\n    \t// Pull sponsor tokens from sender\n        transferFrom(msg.sender, address(this), amount);\n\n        // Calculate equivalent amount of USDC and send to original sender\n        uint256 toSendUSDC = amount * sponsorTokenToUSDC();\n        contractUSDC.transfer(msg.sender, toSendUSDC);\n\n        contractBalanceUSDC -= toSendUSDC;\n\n        if (allSponsorTokensReturned()) {\n\t\t\tcurrentState = States.ClosedLoan;\n\t\t}\n    }\n\n    function sponsorTokenToUSDC() public view returns (uint256) {\n    \treturn totalLoanPayment / totalSupply();\n    }\n\n    function checkUSDCAccounting() private returns (bool) {\n    \tuint256 totalInternalUSDC = 0;\n    \tuint i;\n    \tfor(i = 0; i < lenders.length; i++){\n    \t\ttotalInternalUSDC += contributedUSDC[lenders[i]];\n    \t}\n    \treturn ((totalInternalUSDC == contractBalanceUSDC) && (contractBalanceUSDC >= contractUSDC.balanceOf(address(this))));\n    }\n\n    function calcLoanInterest() private view returns (uint256) {\n        uint timeElapsedSeconds = now - openLoanStartTime;\n        // Number of years calculated as timeElapsed in seconds / 1 years worth of seconds (31622400)\n        return fundraiseAmount * (1 + (interestRate / 10000)) ** (timeElapsedSeconds / 31622400);\n    }\n\n    function calcLoanRepayment() private view returns (uint256) {\n    \treturn startLoanBalanceUSDC + calcLoanInterest();\n    }\n\n}",
  "sourcePath": "/home/h0bbes/Documents/ethdenver/ETHDenver2020/contracts/contracts/sponsorToken.sol",
  "compiler": {
    "name": "solc",
    "version": "0.5.16+commit.9c3226ce.Emscripten.clang"
  },
  "schemaVersion": "3.0.23",
  "updatedAt": "2020-02-16T04:57:46.794Z",
  "devdoc": {
    "methods": {
      "allowance(address,address)": {
        "details": "See {IERC20-allowance}."
      },
      "approve(address,uint256)": {
        "details": "See {IERC20-approve}.     * Requirements:     * - `spender` cannot be the zero address."
      },
      "balanceOf(address)": {
        "details": "See {IERC20-balanceOf}."
      },
      "decimals()": {
        "details": "Returns the number of decimals used to get its user representation. For example, if `decimals` equals `2`, a balance of `505` tokens should be displayed to a user as `5,05` (`505 / 10 ** 2`).     * Tokens usually opt for a value of 18, imitating the relationship between Ether and Wei.     * NOTE: This information is only used for _display_ purposes: it in no way affects any of the arithmetic of the contract, including {IERC20-balanceOf} and {IERC20-transfer}."
      },
      "decreaseAllowance(address,uint256)": {
        "details": "Atomically decreases the allowance granted to `spender` by the caller.     * This is an alternative to {approve} that can be used as a mitigation for problems described in {IERC20-approve}.     * Emits an {Approval} event indicating the updated allowance.     * Requirements:     * - `spender` cannot be the zero address. - `spender` must have allowance for the caller of at least `subtractedValue`."
      },
      "increaseAllowance(address,uint256)": {
        "details": "Atomically increases the allowance granted to `spender` by the caller.     * This is an alternative to {approve} that can be used as a mitigation for problems described in {IERC20-approve}.     * Emits an {Approval} event indicating the updated allowance.     * Requirements:     * - `spender` cannot be the zero address."
      },
      "mint(address,uint256)": {
        "details": "See {ERC20-_mint}.     * Requirements:     * - the caller must have the {MinterRole}."
      },
      "name()": {
        "details": "Returns the name of the token."
      },
      "symbol()": {
        "details": "Returns the symbol of the token, usually a shorter version of the name."
      },
      "totalSupply()": {
        "details": "See {IERC20-totalSupply}."
      },
      "transfer(address,uint256)": {
        "details": "See {IERC20-transfer}.     * Requirements:     * - `recipient` cannot be the zero address. - the caller must have a balance of at least `amount`."
      },
      "transferFrom(address,address,uint256)": {
        "details": "See {IERC20-transferFrom}.     * Emits an {Approval} event indicating the updated allowance. This is not required by the EIP. See the note at the beginning of {ERC20};     * Requirements: - `sender` and `recipient` cannot be the zero address. - `sender` must have a balance of at least `amount`. - the caller must have allowance for `sender`'s tokens of at least `amount`."
      }
    }
  },
  "userdoc": {
    "methods": {
      "contribute(uint256)": {
        "notice": "*************************///  Token Moving Methods   /// *************************///"
      },
      "getFundraiseAmount()": {
        "notice": "*******************///  Getter methods   /// *******************///"
      }
    }
  }
}