{
  "contractName": "SponsorToken",
  "abi": [
    {
      "inputs": [
        {
          "internalType": "string",
          "name": "_name",
          "type": "string"
        },
        {
          "internalType": "string",
          "name": "_symbol",
          "type": "string"
        },
        {
          "internalType": "uint8",
          "name": "_decimals",
          "type": "uint8"
        },
        {
          "internalType": "uint256",
          "name": "_fundraiseAmount",
          "type": "uint256"
        },
        {
          "internalType": "uint256",
          "name": "_interestRate",
          "type": "uint256"
        },
        {
          "internalType": "uint256",
          "name": "_fundraiseEndTime",
          "type": "uint256"
        },
        {
          "internalType": "address",
          "name": "_addressUSDC",
          "type": "address"
        },
        {
          "internalType": "address",
          "name": "_recipient",
          "type": "address"
        }
      ],
      "payable": false,
      "stateMutability": "nonpayable",
      "type": "constructor"
    },
    {
      "anonymous": false,
      "inputs": [
        {
          "indexed": true,
          "internalType": "address",
          "name": "owner",
          "type": "address"
        },
        {
          "indexed": true,
          "internalType": "address",
          "name": "spender",
          "type": "address"
        },
        {
          "indexed": false,
          "internalType": "uint256",
          "name": "value",
          "type": "uint256"
        }
      ],
      "name": "Approval",
      "type": "event"
    },
    {
      "anonymous": false,
      "inputs": [
        {
          "indexed": true,
          "internalType": "address",
          "name": "account",
          "type": "address"
        }
      ],
      "name": "MinterAdded",
      "type": "event"
    },
    {
      "anonymous": false,
      "inputs": [
        {
          "indexed": true,
          "internalType": "address",
          "name": "account",
          "type": "address"
        }
      ],
      "name": "MinterRemoved",
      "type": "event"
    },
    {
      "anonymous": false,
      "inputs": [
        {
          "indexed": true,
          "internalType": "address",
          "name": "from",
          "type": "address"
        },
        {
          "indexed": true,
          "internalType": "address",
          "name": "to",
          "type": "address"
        },
        {
          "indexed": false,
          "internalType": "uint256",
          "name": "value",
          "type": "uint256"
        }
      ],
      "name": "Transfer",
      "type": "event"
    },
    {
      "constant": false,
      "inputs": [
        {
          "internalType": "address",
          "name": "account",
          "type": "address"
        }
      ],
      "name": "addMinter",
      "outputs": [],
      "payable": false,
      "stateMutability": "nonpayable",
      "type": "function"
    },
    {
      "constant": true,
      "inputs": [
        {
          "internalType": "address",
          "name": "owner",
          "type": "address"
        },
        {
          "internalType": "address",
          "name": "spender",
          "type": "address"
        }
      ],
      "name": "allowance",
      "outputs": [
        {
          "internalType": "uint256",
          "name": "",
          "type": "uint256"
        }
      ],
      "payable": false,
      "stateMutability": "view",
      "type": "function"
    },
    {
      "constant": false,
      "inputs": [
        {
          "internalType": "address",
          "name": "spender",
          "type": "address"
        },
        {
          "internalType": "uint256",
          "name": "amount",
          "type": "uint256"
        }
      ],
      "name": "approve",
      "outputs": [
        {
          "internalType": "bool",
          "name": "",
          "type": "bool"
        }
      ],
      "payable": false,
      "stateMutability": "nonpayable",
      "type": "function"
    },
    {
      "constant": true,
      "inputs": [
        {
          "internalType": "address",
          "name": "account",
          "type": "address"
        }
      ],
      "name": "balanceOf",
      "outputs": [
        {
          "internalType": "uint256",
          "name": "",
          "type": "uint256"
        }
      ],
      "payable": false,
      "stateMutability": "view",
      "type": "function"
    },
    {
      "constant": true,
      "inputs": [],
      "name": "decimals",
      "outputs": [
        {
          "internalType": "uint8",
          "name": "",
          "type": "uint8"
        }
      ],
      "payable": false,
      "stateMutability": "view",
      "type": "function"
    },
    {
      "constant": false,
      "inputs": [
        {
          "internalType": "address",
          "name": "spender",
          "type": "address"
        },
        {
          "internalType": "uint256",
          "name": "subtractedValue",
          "type": "uint256"
        }
      ],
      "name": "decreaseAllowance",
      "outputs": [
        {
          "internalType": "bool",
          "name": "",
          "type": "bool"
        }
      ],
      "payable": false,
      "stateMutability": "nonpayable",
      "type": "function"
    },
    {
      "constant": false,
      "inputs": [
        {
          "internalType": "address",
          "name": "spender",
          "type": "address"
        },
        {
          "internalType": "uint256",
          "name": "addedValue",
          "type": "uint256"
        }
      ],
      "name": "increaseAllowance",
      "outputs": [
        {
          "internalType": "bool",
          "name": "",
          "type": "bool"
        }
      ],
      "payable": false,
      "stateMutability": "nonpayable",
      "type": "function"
    },
    {
      "constant": true,
      "inputs": [
        {
          "internalType": "address",
          "name": "account",
          "type": "address"
        }
      ],
      "name": "isMinter",
      "outputs": [
        {
          "internalType": "bool",
          "name": "",
          "type": "bool"
        }
      ],
      "payable": false,
      "stateMutability": "view",
      "type": "function"
    },
    {
      "constant": false,
      "inputs": [
        {
          "internalType": "address",
          "name": "account",
          "type": "address"
        },
        {
          "internalType": "uint256",
          "name": "amount",
          "type": "uint256"
        }
      ],
      "name": "mint",
      "outputs": [
        {
          "internalType": "bool",
          "name": "",
          "type": "bool"
        }
      ],
      "payable": false,
      "stateMutability": "nonpayable",
      "type": "function"
    },
    {
      "constant": true,
      "inputs": [],
      "name": "name",
      "outputs": [
        {
          "internalType": "string",
          "name": "",
          "type": "string"
        }
      ],
      "payable": false,
      "stateMutability": "view",
      "type": "function"
    },
    {
      "constant": false,
      "inputs": [],
      "name": "renounceMinter",
      "outputs": [],
      "payable": false,
      "stateMutability": "nonpayable",
      "type": "function"
    },
    {
      "constant": true,
      "inputs": [],
      "name": "symbol",
      "outputs": [
        {
          "internalType": "string",
          "name": "",
          "type": "string"
        }
      ],
      "payable": false,
      "stateMutability": "view",
      "type": "function"
    },
    {
      "constant": true,
      "inputs": [],
      "name": "totalSupply",
      "outputs": [
        {
          "internalType": "uint256",
          "name": "",
          "type": "uint256"
        }
      ],
      "payable": false,
      "stateMutability": "view",
      "type": "function"
    },
    {
      "constant": false,
      "inputs": [
        {
          "internalType": "address",
          "name": "sender",
          "type": "address"
        },
        {
          "internalType": "address",
          "name": "recipient",
          "type": "address"
        },
        {
          "internalType": "uint256",
          "name": "amount",
          "type": "uint256"
        }
      ],
      "name": "transferFrom",
      "outputs": [
        {
          "internalType": "bool",
          "name": "",
          "type": "bool"
        }
      ],
      "payable": false,
      "stateMutability": "nonpayable",
      "type": "function"
    },
    {
      "constant": true,
      "inputs": [],
      "name": "getFundraiseAmount",
      "outputs": [
        {
          "internalType": "uint256",
          "name": "",
          "type": "uint256"
        }
      ],
      "payable": false,
      "stateMutability": "view",
      "type": "function"
    },
    {
      "constant": true,
      "inputs": [],
      "name": "getInterestRate",
      "outputs": [
        {
          "internalType": "uint256",
          "name": "",
          "type": "uint256"
        }
      ],
      "payable": false,
      "stateMutability": "view",
      "type": "function"
    },
    {
      "constant": true,
      "inputs": [],
      "name": "getContractBalanceUSDC",
      "outputs": [
        {
          "internalType": "uint256",
          "name": "",
          "type": "uint256"
        }
      ],
      "payable": false,
      "stateMutability": "view",
      "type": "function"
    },
    {
      "constant": true,
      "inputs": [],
      "name": "getEndTimeFundraiser",
      "outputs": [
        {
          "internalType": "uint256",
          "name": "",
          "type": "uint256"
        }
      ],
      "payable": false,
      "stateMutability": "view",
      "type": "function"
    },
    {
      "constant": true,
      "inputs": [],
      "name": "getStartTimeFundraiser",
      "outputs": [
        {
          "internalType": "uint256",
          "name": "",
          "type": "uint256"
        }
      ],
      "payable": false,
      "stateMutability": "view",
      "type": "function"
    },
    {
      "constant": true,
      "inputs": [],
      "name": "getStartTimeOpenLoan",
      "outputs": [
        {
          "internalType": "uint256",
          "name": "",
          "type": "uint256"
        }
      ],
      "payable": false,
      "stateMutability": "view",
      "type": "function"
    },
    {
      "constant": true,
      "inputs": [],
      "name": "getTotalLoanPayment",
      "outputs": [
        {
          "internalType": "uint256",
          "name": "",
          "type": "uint256"
        }
      ],
      "payable": false,
      "stateMutability": "view",
      "type": "function"
    },
    {
      "constant": true,
      "inputs": [
        {
          "internalType": "address",
          "name": "lender",
          "type": "address"
        }
      ],
      "name": "getCurrentContribution",
      "outputs": [
        {
          "internalType": "uint256",
          "name": "",
          "type": "uint256"
        }
      ],
      "payable": false,
      "stateMutability": "view",
      "type": "function"
    },
    {
      "constant": true,
      "inputs": [],
      "name": "getLoanState",
      "outputs": [
        {
          "internalType": "enum SponsorToken.States",
          "name": "",
          "type": "uint8"
        }
      ],
      "payable": false,
      "stateMutability": "view",
      "type": "function"
    },
    {
      "constant": true,
      "inputs": [],
      "name": "getRemainingRepayment",
      "outputs": [
        {
          "internalType": "uint256",
          "name": "",
          "type": "uint256"
        }
      ],
      "payable": false,
      "stateMutability": "view",
      "type": "function"
    },
    {
      "constant": false,
      "inputs": [
        {
          "internalType": "address",
          "name": "transferRecipient",
          "type": "address"
        },
        {
          "internalType": "uint256",
          "name": "amount",
          "type": "uint256"
        }
      ],
      "name": "transfer",
      "outputs": [
        {
          "internalType": "bool",
          "name": "",
          "type": "bool"
        }
      ],
      "payable": false,
      "stateMutability": "nonpayable",
      "type": "function"
    },
    {
      "constant": false,
      "inputs": [
        {
          "internalType": "uint256",
          "name": "amount",
          "type": "uint256"
        }
      ],
      "name": "contribute",
      "outputs": [
        {
          "internalType": "bool",
          "name": "",
          "type": "bool"
        }
      ],
      "payable": false,
      "stateMutability": "nonpayable",
      "type": "function"
    },
    {
      "constant": false,
      "inputs": [
        {
          "internalType": "uint256",
          "name": "amount",
          "type": "uint256"
        }
      ],
      "name": "payLoan",
      "outputs": [
        {
          "internalType": "bool",
          "name": "",
          "type": "bool"
        }
      ],
      "payable": false,
      "stateMutability": "nonpayable",
      "type": "function"
    },
    {
      "constant": true,
      "inputs": [],
      "name": "sponsorTokenToUSDC",
      "outputs": [
        {
          "internalType": "uint256",
          "name": "",
          "type": "uint256"
        }
      ],
      "payable": false,
      "stateMutability": "view",
      "type": "function"
    }
  ],
  "bytecode": "0x60806040523480156200001157600080fd5b5060405162002ff238038062002ff283398181016040526101008110156200003857600080fd5b81019080805160405193929190846401000000008211156200005957600080fd5b838201915060208201858111156200007057600080fd5b82518660018202830111640100000000821117156200008e57600080fd5b8083526020830192505050908051906020019080838360005b83811015620000c4578082015181840152602081019050620000a7565b50505050905090810190601f168015620000f25780820380516001836020036101000a031916815260200191505b50604052602001805160405193929190846401000000008211156200011657600080fd5b838201915060208201858111156200012d57600080fd5b82518660018202830111640100000000821117156200014b57600080fd5b8083526020830192505050908051906020019080838360005b838110156200018157808201518184015260208101905062000164565b50505050905090810190601f168015620001af5780820380516001836020036101000a031916815260200191505b50604052602001805190602001909291908051906020019092919080519060200190929190805190602001909291908051906020019092919080519060200190929190505050878787620002186200020c6200033960201b60201c565b6200034160201b60201c565b82600490805190602001906200023092919062000566565b5081600590805190602001906200024992919062000566565b5080600660006101000a81548160ff021916908360ff160217905550505050846007819055508360088190555081600d60006101000a81548173ffffffffffffffffffffffffffffffffffffffff021916908373ffffffffffffffffffffffffffffffffffffffff16021790555080600c60006101000a81548173ffffffffffffffffffffffffffffffffffffffff021916908373ffffffffffffffffffffffffffffffffffffffff1602179055504260098190555082600a819055506000600d60146101000a81548160ff021916908360038111156200032657fe5b0217905550505050505050505062000615565b600033905090565b6200035c816003620003a260201b620024ad1790919060201c565b8073ffffffffffffffffffffffffffffffffffffffff167f6ae172837ea30b801fbfcdd4108aa1d5bf8ff775444fd70256b44e6bf3dfc3f660405160405180910390a250565b620003b482826200048660201b60201c565b1562000428576040517f08c379a000000000000000000000000000000000000000000000000000000000815260040180806020018281038252601f8152602001807f526f6c65733a206163636f756e7420616c72656164792068617320726f6c650081525060200191505060405180910390fd5b60018260000160008373ffffffffffffffffffffffffffffffffffffffff1673ffffffffffffffffffffffffffffffffffffffff16815260200190815260200160002060006101000a81548160ff0219169083151502179055505050565b60008073ffffffffffffffffffffffffffffffffffffffff168273ffffffffffffffffffffffffffffffffffffffff1614156200050f576040517f08c379a000000000000000000000000000000000000000000000000000000000815260040180806020018281038252602281526020018062002fd06022913960400191505060405180910390fd5b8260000160008373ffffffffffffffffffffffffffffffffffffffff1673ffffffffffffffffffffffffffffffffffffffff16815260200190815260200160002060009054906101000a900460ff16905092915050565b828054600181600116156101000203166002900490600052602060002090601f016020900481019282601f10620005a957805160ff1916838001178555620005da565b82800160010185558215620005da579182015b82811115620005d9578251825591602001919060010190620005bc565b5b509050620005e99190620005ed565b5090565b6200061291905b808211156200060e576000816000905550600101620005f4565b5090565b90565b6129ab80620006256000396000f3fe608060405234801561001057600080fd5b50600436106101c45760003560e01c806395d89b41116100f9578063a9059cbb11610097578063dd62ed3e11610071578063dd62ed3e1461085b578063eef656b8146108d3578063f1139caa146108f1578063f48004671461090f576101c4565b8063a9059cbb14610753578063aa271e1a146107b9578063c1cbbca714610815576101c4565b80639e9f669c116100d35780639e9f669c1461065d578063a3e8add514610689578063a457c2d7146106a7578063a8d7b3ec1461070d576101c4565b806395d89b411461058c578063983b2d561461060f5780639865027514610653576101c4565b8063395093511161016657806341ee6ab21161014057806341ee6ab2146104a05780635257b566146104f85780636d13365f1461051657806370a0823114610534576101c4565b806339509351146103b65780633a367aea1461041c57806340c10f191461043a576101c4565b806318160ddd116101a257806318160ddd146102d057806323b872dd146102ee5780632f1961cd14610374578063313ce56714610392576101c4565b806306fdde03146101c95780630729019b1461024c578063095ea7b31461026a575b600080fd5b6101d161092d565b6040518080602001828103825283818151815260200191508051906020019080838360005b838110156102115780820151818401526020810190506101f6565b50505050905090810190601f16801561023e5780820380516001836020036101000a031916815260200191505b509250505060405180910390f35b6102546109cf565b6040518082815260200191505060405180910390f35b6102b66004803603604081101561028057600080fd5b81019080803573ffffffffffffffffffffffffffffffffffffffff169060200190929190803590602001909291905050506109e9565b604051808215151515815260200191505060405180910390f35b6102d8610a07565b6040518082815260200191505060405180910390f35b61035a6004803603606081101561030457600080fd5b81019080803573ffffffffffffffffffffffffffffffffffffffff169060200190929190803573ffffffffffffffffffffffffffffffffffffffff16906020019092919080359060200190929190505050610a11565b604051808215151515815260200191505060405180910390f35b61037c610aea565b6040518082815260200191505060405180910390f35b61039a610af4565b604051808260ff1660ff16815260200191505060405180910390f35b610402600480360360408110156103cc57600080fd5b81019080803573ffffffffffffffffffffffffffffffffffffffff16906020019092919080359060200190929190505050610b0b565b604051808215151515815260200191505060405180910390f35b610424610bbe565b6040518082815260200191505060405180910390f35b6104866004803603604081101561045057600080fd5b81019080803573ffffffffffffffffffffffffffffffffffffffff16906020019092919080359060200190929190505050610bc8565b604051808215151515815260200191505060405180910390f35b6104e2600480360360208110156104b657600080fd5b81019080803573ffffffffffffffffffffffffffffffffffffffff169060200190929190505050610c43565b6040518082815260200191505060405180910390f35b610500610c8c565b6040518082815260200191505060405180910390f35b61051e610c96565b6040518082815260200191505060405180910390f35b6105766004803603602081101561054a57600080fd5b81019080803573ffffffffffffffffffffffffffffffffffffffff169060200190929190505050610cae565b6040518082815260200191505060405180910390f35b610594610cf6565b6040518080602001828103825283818151815260200191508051906020019080838360005b838110156105d45780820151818401526020810190506105b9565b50505050905090810190601f1680156106015780820380516001836020036101000a031916815260200191505b509250505060405180910390f35b6106516004803603602081101561062557600080fd5b81019080803573ffffffffffffffffffffffffffffffffffffffff169060200190929190505050610d98565b005b61065b610e09565b005b610665610e1b565b6040518082600381111561067557fe5b60ff16815260200191505060405180910390f35b610691610e32565b6040518082815260200191505060405180910390f35b6106f3600480360360408110156106bd57600080fd5b81019080803573ffffffffffffffffffffffffffffffffffffffff16906020019092919080359060200190929190505050610e3c565b604051808215151515815260200191505060405180910390f35b6107396004803603602081101561072357600080fd5b8101908080359060200190929190505050610f09565b604051808215151515815260200191505060405180910390f35b61079f6004803603604081101561076957600080fd5b81019080803573ffffffffffffffffffffffffffffffffffffffff16906020019092919080359060200190929190505050611095565b604051808215151515815260200191505060405180910390f35b6107fb600480360360208110156107cf57600080fd5b81019080803573ffffffffffffffffffffffffffffffffffffffff169060200190929190505050611184565b604051808215151515815260200191505060405180910390f35b6108416004803603602081101561082b57600080fd5b81019080803590602001909291905050506111a1565b604051808215151515815260200191505060405180910390f35b6108bd6004803603604081101561087157600080fd5b81019080803573ffffffffffffffffffffffffffffffffffffffff169060200190929190803573ffffffffffffffffffffffffffffffffffffffff169060200190929190505050611482565b6040518082815260200191505060405180910390f35b6108db611509565b6040518082815260200191505060405180910390f35b6108f9611513565b6040518082815260200191505060405180910390f35b61091761151d565b6040518082815260200191505060405180910390f35b606060048054600181600116156101000203166002900480601f0160208091040260200160405190810160405280929190818152602001828054600181600116156101000203166002900480156109c55780601f1061099a576101008083540402835291602001916109c5565b820191906000526020600020905b8154815290600101906020018083116109a857829003601f168201915b5050505050905090565b60006109d9610a07565b601054816109e357fe5b04905090565b60006109fd6109f6611527565b848461152f565b6001905092915050565b6000600254905090565b6000610a1e848484611726565b610adf84610a2a611527565b610ada8560405180606001604052806028815260200161289960289139600160008b73ffffffffffffffffffffffffffffffffffffffff1673ffffffffffffffffffffffffffffffffffffffff1681526020019081526020016000206000610a90611527565b73ffffffffffffffffffffffffffffffffffffffff1673ffffffffffffffffffffffffffffffffffffffff168152602001908152602001600020546119dc9092919063ffffffff16565b61152f565b600190509392505050565b6000600954905090565b6000600660009054906101000a900460ff16905090565b6000610bb4610b18611527565b84610baf8560016000610b29611527565b73ffffffffffffffffffffffffffffffffffffffff1673ffffffffffffffffffffffffffffffffffffffff16815260200190815260200160002060008973ffffffffffffffffffffffffffffffffffffffff1673ffffffffffffffffffffffffffffffffffffffff16815260200190815260200160002054611a9c90919063ffffffff16565b61152f565b6001905092915050565b6000600e54905090565b6000610bda610bd5611527565b611184565b610c2f576040517f08c379a00000000000000000000000000000000000000000000000000000000081526004018080602001828103825260308152602001806128486030913960400191505060405180910390fd5b610c398383611b24565b6001905092915050565b6000601160008373ffffffffffffffffffffffffffffffffffffffff1673ffffffffffffffffffffffffffffffffffffffff168152602001908152602001600020549050919050565b6000600854905090565b6000610ca061151d565b610ca8611cdf565b03905090565b60008060008373ffffffffffffffffffffffffffffffffffffffff1673ffffffffffffffffffffffffffffffffffffffff168152602001908152602001600020549050919050565b606060058054600181600116156101000203166002900480601f016020809104026020016040519081016040528092919081815260200182805460018160011615610100020316600290048015610d8e5780601f10610d6357610100808354040283529160200191610d8e565b820191906000526020600020905b815481529060010190602001808311610d7157829003601f168201915b5050505050905090565b610da8610da3611527565b611184565b610dfd576040517f08c379a00000000000000000000000000000000000000000000000000000000081526004018080602001828103825260308152602001806128486030913960400191505060405180910390fd5b610e0681611d13565b50565b610e19610e14611527565b611d6d565b565b6000600d60149054906101000a900460ff16905090565b6000600b54905090565b6000610eff610e49611527565b84610efa856040518060600160405280602581526020016129526025913960016000610e73611527565b73ffffffffffffffffffffffffffffffffffffffff1673ffffffffffffffffffffffffffffffffffffffff16815260200190815260200160002060008a73ffffffffffffffffffffffffffffffffffffffff1673ffffffffffffffffffffffffffffffffffffffff168152602001908152602001600020546119dc9092919063ffffffff16565b61152f565b6001905092915050565b600060016003811115610f1857fe5b600d60149054906101000a900460ff166003811115610f3357fe5b14610f3d57600080fd5b600d60009054906101000a900473ffffffffffffffffffffffffffffffffffffffff1673ffffffffffffffffffffffffffffffffffffffff166323b872dd610f83611527565b30856040518463ffffffff1660e01b8152600401808473ffffffffffffffffffffffffffffffffffffffff1673ffffffffffffffffffffffffffffffffffffffff1681526020018373ffffffffffffffffffffffffffffffffffffffff1673ffffffffffffffffffffffffffffffffffffffff1681526020018281526020019350505050600060405180830381600087803b15801561102157600080fd5b505af1158015611035573d6000803e3d6000fd5b5050505081600e60008282540192505081905550600e5460108190555061105a611dc7565b1561108c57611067611ddb565b6002600d60146101000a81548160ff0219169083600381111561108657fe5b02179055505b60019050919050565b6000808214156110f0576040517f08c379a000000000000000000000000000000000000000000000000000000000815260040180806020018281038252602681526020018061292c6026913960400191505060405180910390fd5b60006110fb84610cae565b14156111685760128390806001815401808255809150509060018203906000526020600020016000909192909190916101000a81548173ffffffffffffffffffffffffffffffffffffffff021916908373ffffffffffffffffffffffffffffffffffffffff160217905550505b61117a611173611527565b8484611726565b6001905092915050565b600061119a826003611f4a90919063ffffffff16565b9050919050565b60008060038111156111af57fe5b600d60149054906101000a900460ff1660038111156111ca57fe5b146111d457600080fd5b600754600e54830111156111e757600080fd5b600082116111f457600080fd5b6111fc612028565b1561122e57611209612035565b6003600d60146101000a81548160ff0219169083600381111561122857fe5b02179055505b600d60009054906101000a900473ffffffffffffffffffffffffffffffffffffffff1673ffffffffffffffffffffffffffffffffffffffff166323b872dd611274611527565b30856040518463ffffffff1660e01b8152600401808473ffffffffffffffffffffffffffffffffffffffff1673ffffffffffffffffffffffffffffffffffffffff1681526020018373ffffffffffffffffffffffffffffffffffffffff1673ffffffffffffffffffffffffffffffffffffffff1681526020018281526020019350505050600060405180830381600087803b15801561131257600080fd5b505af1158015611326573d6000803e3d6000fd5b505050506000601160003373ffffffffffffffffffffffffffffffffffffffff1673ffffffffffffffffffffffffffffffffffffffff1681526020019081526020016000205414156113d95760123390806001815401808255809150509060018203906000526020600020016000909192909190916101000a81548173ffffffffffffffffffffffffffffffffffffffff021916908373ffffffffffffffffffffffffffffffffffffffff160217905550505b81601160003373ffffffffffffffffffffffffffffffffffffffff1673ffffffffffffffffffffffffffffffffffffffff1681526020019081526020016000206000828254019250508190555081600e6000828254019250508190555061143e61228d565b1561147957600e54600f8190555061145461229c565b6001600d60146101000a81548160ff0219169083600381111561147357fe5b02179055505b60019050919050565b6000600160008473ffffffffffffffffffffffffffffffffffffffff1673ffffffffffffffffffffffffffffffffffffffff16815260200190815260200160002060008373ffffffffffffffffffffffffffffffffffffffff1673ffffffffffffffffffffffffffffffffffffffff16815260200190815260200160002054905092915050565b6000600754905090565b6000600a54905090565b6000601054905090565b600033905090565b600073ffffffffffffffffffffffffffffffffffffffff168373ffffffffffffffffffffffffffffffffffffffff1614156115b5576040517f08c379a00000000000000000000000000000000000000000000000000000000081526004018080602001828103825260248152602001806129086024913960400191505060405180910390fd5b600073ffffffffffffffffffffffffffffffffffffffff168273ffffffffffffffffffffffffffffffffffffffff16141561163b576040517f08c379a00000000000000000000000000000000000000000000000000000000081526004018080602001828103825260228152602001806128006022913960400191505060405180910390fd5b80600160008573ffffffffffffffffffffffffffffffffffffffff1673ffffffffffffffffffffffffffffffffffffffff16815260200190815260200160002060008473ffffffffffffffffffffffffffffffffffffffff1673ffffffffffffffffffffffffffffffffffffffff168152602001908152602001600020819055508173ffffffffffffffffffffffffffffffffffffffff168373ffffffffffffffffffffffffffffffffffffffff167f8c5be1e5ebec7d5bd14f71427d1e84f3dd0314c0f7b2291e5b200ac8c7c3b925836040518082815260200191505060405180910390a3505050565b600073ffffffffffffffffffffffffffffffffffffffff168373ffffffffffffffffffffffffffffffffffffffff1614156117ac576040517f08c379a00000000000000000000000000000000000000000000000000000000081526004018080602001828103825260258152602001806128e36025913960400191505060405180910390fd5b600073ffffffffffffffffffffffffffffffffffffffff168273ffffffffffffffffffffffffffffffffffffffff161415611832576040517f08c379a00000000000000000000000000000000000000000000000000000000081526004018080602001828103825260238152602001806127dd6023913960400191505060405180910390fd5b61189d81604051806060016040528060268152602001612822602691396000808773ffffffffffffffffffffffffffffffffffffffff1673ffffffffffffffffffffffffffffffffffffffff168152602001908152602001600020546119dc9092919063ffffffff16565b6000808573ffffffffffffffffffffffffffffffffffffffff1673ffffffffffffffffffffffffffffffffffffffff16815260200190815260200160002081905550611930816000808573ffffffffffffffffffffffffffffffffffffffff1673ffffffffffffffffffffffffffffffffffffffff16815260200190815260200160002054611a9c90919063ffffffff16565b6000808473ffffffffffffffffffffffffffffffffffffffff1673ffffffffffffffffffffffffffffffffffffffff168152602001908152602001600020819055508173ffffffffffffffffffffffffffffffffffffffff168373ffffffffffffffffffffffffffffffffffffffff167fddf252ad1be2c89b69c2b068fc378daa952ba7f163c4a11628f55a4df523b3ef836040518082815260200191505060405180910390a3505050565b6000838311158290611a89576040517f08c379a00000000000000000000000000000000000000000000000000000000081526004018080602001828103825283818151815260200191508051906020019080838360005b83811015611a4e578082015181840152602081019050611a33565b50505050905090810190601f168015611a7b5780820380516001836020036101000a031916815260200191505b509250505060405180910390fd5b5060008385039050809150509392505050565b600080828401905083811015611b1a576040517f08c379a000000000000000000000000000000000000000000000000000000000815260040180806020018281038252601b8152602001807f536166654d6174683a206164646974696f6e206f766572666c6f77000000000081525060200191505060405180910390fd5b8091505092915050565b600073ffffffffffffffffffffffffffffffffffffffff168273ffffffffffffffffffffffffffffffffffffffff161415611bc7576040517f08c379a000000000000000000000000000000000000000000000000000000000815260040180806020018281038252601f8152602001807f45524332303a206d696e7420746f20746865207a65726f20616464726573730081525060200191505060405180910390fd5b611bdc81600254611a9c90919063ffffffff16565b600281905550611c33816000808573ffffffffffffffffffffffffffffffffffffffff1673ffffffffffffffffffffffffffffffffffffffff16815260200190815260200160002054611a9c90919063ffffffff16565b6000808473ffffffffffffffffffffffffffffffffffffffff1673ffffffffffffffffffffffffffffffffffffffff168152602001908152602001600020819055508173ffffffffffffffffffffffffffffffffffffffff16600073ffffffffffffffffffffffffffffffffffffffff167fddf252ad1be2c89b69c2b068fc378daa952ba7f163c4a11628f55a4df523b3ef836040518082815260200191505060405180910390a35050565b600080600b54420390506301e285008181611cf657fe5b0461271060085481611d0457fe5b046001010a6007540291505090565b611d278160036124ad90919063ffffffff16565b8073ffffffffffffffffffffffffffffffffffffffff167f6ae172837ea30b801fbfcdd4108aa1d5bf8ff775444fd70256b44e6bf3dfc3f660405160405180910390a250565b611d8181600361258890919063ffffffff16565b8073ffffffffffffffffffffffffffffffffffffffff167fe94479a9f7e1952cc78f2d6baab678adc1b772d936c6583def489e524cb6669260405160405180910390a250565b6000611dd1611cdf565b600e541015905090565b6000611de56109cf565b905060008090505b601280549050811015611f4657600082611e3d60128481548110611e0d57fe5b9060005260206000200160009054906101000a900473ffffffffffffffffffffffffffffffffffffffff16610cae565b029050600d60009054906101000a900473ffffffffffffffffffffffffffffffffffffffff1673ffffffffffffffffffffffffffffffffffffffff1663a9059cbb60128481548110611e8b57fe5b9060005260206000200160009054906101000a900473ffffffffffffffffffffffffffffffffffffffff16836040518363ffffffff1660e01b8152600401808373ffffffffffffffffffffffffffffffffffffffff1673ffffffffffffffffffffffffffffffffffffffff16815260200182815260200192505050600060405180830381600087803b158015611f2057600080fd5b505af1158015611f34573d6000803e3d6000fd5b50505050508080600101915050611ded565b5050565b60008073ffffffffffffffffffffffffffffffffffffffff168273ffffffffffffffffffffffffffffffffffffffff161415611fd1576040517f08c379a00000000000000000000000000000000000000000000000000000000081526004018080602001828103825260228152602001806128c16022913960400191505060405180910390fd5b8260000160008373ffffffffffffffffffffffffffffffffffffffff1673ffffffffffffffffffffffffffffffffffffffff16815260200190815260200160002060009054906101000a900460ff16905092915050565b6000600a54421015905090565b6000600381111561204257fe5b600d60149054906101000a900460ff16600381111561205d57fe5b1461206757600080fd5b60008090505b60128054905081101561227b57600d60009054906101000a900473ffffffffffffffffffffffffffffffffffffffff1673ffffffffffffffffffffffffffffffffffffffff1663a9059cbb601283815481106120c557fe5b9060005260206000200160009054906101000a900473ffffffffffffffffffffffffffffffffffffffff16601160006012868154811061210157fe5b9060005260206000200160009054906101000a900473ffffffffffffffffffffffffffffffffffffffff1673ffffffffffffffffffffffffffffffffffffffff1673ffffffffffffffffffffffffffffffffffffffff168152602001908152602001600020546040518363ffffffff1660e01b8152600401808373ffffffffffffffffffffffffffffffffffffffff1673ffffffffffffffffffffffffffffffffffffffff16815260200182815260200192505050600060405180830381600087803b1580156121d057600080fd5b505af11580156121e4573d6000803e3d6000fd5b5050505060116000601283815481106121f957fe5b9060005260206000200160009054906101000a900473ffffffffffffffffffffffffffffffffffffffff1673ffffffffffffffffffffffffffffffffffffffff1673ffffffffffffffffffffffffffffffffffffffff16815260200190815260200160002054600e60008282540392505081905550808060010191505061206d565b6000600e541461228a57600080fd5b50565b6000600754600e541015905090565b600060038111156122a957fe5b600d60149054906101000a900460ff1660038111156122c457fe5b146122ce57600080fd5b6122d6612645565b6122df57600080fd5b60008090505b6012805490508110156123b6576123a96012828154811061230257fe5b9060005260206000200160009054906101000a900473ffffffffffffffffffffffffffffffffffffffff16601160006012858154811061233e57fe5b9060005260206000200160009054906101000a900473ffffffffffffffffffffffffffffffffffffffff1673ffffffffffffffffffffffffffffffffffffffff1673ffffffffffffffffffffffffffffffffffffffff16815260200190815260200160002054611b24565b80806001019150506122e5565b600d60009054906101000a900473ffffffffffffffffffffffffffffffffffffffff1673ffffffffffffffffffffffffffffffffffffffff1663a9059cbb600c60009054906101000a900473ffffffffffffffffffffffffffffffffffffffff16600e546040518363ffffffff1660e01b8152600401808373ffffffffffffffffffffffffffffffffffffffff1673ffffffffffffffffffffffffffffffffffffffff16815260200182815260200192505050600060405180830381600087803b15801561248357600080fd5b505af1158015612497573d6000803e3d6000fd5b505050506000600e8190555042600b8190555050565b6124b78282611f4a565b1561252a576040517f08c379a000000000000000000000000000000000000000000000000000000000815260040180806020018281038252601f8152602001807f526f6c65733a206163636f756e7420616c72656164792068617320726f6c650081525060200191505060405180910390fd5b60018260000160008373ffffffffffffffffffffffffffffffffffffffff1673ffffffffffffffffffffffffffffffffffffffff16815260200190815260200160002060006101000a81548160ff0219169083151502179055505050565b6125928282611f4a565b6125e7576040517f08c379a00000000000000000000000000000000000000000000000000000000081526004018080602001828103825260218152602001806128786021913960400191505060405180910390fd5b60008260000160008373ffffffffffffffffffffffffffffffffffffffff1673ffffffffffffffffffffffffffffffffffffffff16815260200190815260200160002060006101000a81548160ff0219169083151502179055505050565b6000806000905060008090505b6012805490508110156126e757601160006012838154811061267057fe5b9060005260206000200160009054906101000a900473ffffffffffffffffffffffffffffffffffffffff1673ffffffffffffffffffffffffffffffffffffffff1673ffffffffffffffffffffffffffffffffffffffff16815260200190815260200160002054820191508080600101915050612652565b600e54821480156127d55750600d60009054906101000a900473ffffffffffffffffffffffffffffffffffffffff1673ffffffffffffffffffffffffffffffffffffffff166370a08231306040518263ffffffff1660e01b8152600401808273ffffffffffffffffffffffffffffffffffffffff1673ffffffffffffffffffffffffffffffffffffffff168152602001915050602060405180830381600087803b15801561279457600080fd5b505af11580156127a8573d6000803e3d6000fd5b505050506040513d60208110156127be57600080fd5b8101908080519060200190929190505050600e5410155b925050509056fe45524332303a207472616e7366657220746f20746865207a65726f206164647265737345524332303a20617070726f766520746f20746865207a65726f206164647265737345524332303a207472616e7366657220616d6f756e7420657863656564732062616c616e63654d696e746572526f6c653a2063616c6c657220646f6573206e6f74206861766520746865204d696e74657220726f6c65526f6c65733a206163636f756e7420646f6573206e6f74206861766520726f6c6545524332303a207472616e7366657220616d6f756e74206578636565647320616c6c6f77616e6365526f6c65733a206163636f756e7420697320746865207a65726f206164647265737345524332303a207472616e736665722066726f6d20746865207a65726f206164647265737345524332303a20617070726f76652066726f6d20746865207a65726f20616464726573735472616e7366657220616d6f756e74206d7573742062652067726561746572207468616e203045524332303a2064656372656173656420616c6c6f77616e63652062656c6f77207a65726fa265627a7a7231582070766af0f9053d761d07830d715779f755d081cb8ae31167626e647481b9e8d864736f6c63430005100032526f6c65733a206163636f756e7420697320746865207a65726f2061646472657373",
  "source": "pragma solidity ^0.5.0;\n \nimport \"@openzeppelin/contracts/token/ERC20/ERC20.sol\";\nimport \"@openzeppelin/contracts/token/ERC20/ERC20Mintable.sol\";\nimport \"@openzeppelin/contracts/token/ERC20/ERC20Detailed.sol\";\n\n// For USDC Token contract\ncontract ERC20Token {\n  function transferFrom(address from, address to, uint value) public;\n  function transfer(address recipient, uint256 amount) public;\n  function balanceOf(address account) public returns (uint256);\n}\n \ncontract SponsorToken is ERC20, ERC20Mintable, ERC20Detailed{\n\t// Metadata about fundraise\n    uint256 private fundraiseAmount;\n   \tuint256 private interestRate;\n\n    uint256 private fundraiseStartTime;\n    uint256 private fundraiseEndTime;\n\n    uint256 private openLoanStartTime;\n\n   \taddress private recipient;\n\n    ERC20Token contractUSDC;\n\n   \t// Fundraise states\n   \tenum States { Fundraising, OpenLoan, ConvertLoan, ClosedLoan }\n\n   \t// Current state\n   \tStates currentState;\n   \t// How much USDC the contract owns (through contract interaction, no transfers)\n    uint256 contractBalanceUSDC;\n    // Total USDC that was loaned at end of Fundraising/ start of OpenLoan\n   \tuint256 startLoanBalanceUSDC;\n   \t// Total USDC that was paid by recipient at end of OpenLoan/ start of ConvertLoan\n   \tuint256 totalLoanPayment;\n\n   \tmapping (address => uint256) private contributedUSDC;\n   \taddress[] lenders;\n\n    constructor(\n    \tstring memory _name,\n    \tstring memory _symbol,\n    \tuint8 _decimals,\n    \tuint256 _fundraiseAmount,\n    \tuint256 _interestRate,\n    \tuint256 _fundraiseEndTime,\n    \taddress _addressUSDC,\n    \taddress _recipient\n    )\n    \tERC20Detailed(\n    \t\t_name,\n    \t\t_symbol,\n    \t\t_decimals\n    \t) \n    \tpublic \n    { \n      // Set metadata\n      fundraiseAmount = _fundraiseAmount;\n      interestRate = _interestRate;\n      contractUSDC = ERC20Token(_addressUSDC);\n      recipient = _recipient;\n\n      // Start time of fundraiser is unix time of block\n      fundraiseStartTime = now;\n      fundraiseEndTime = _fundraiseEndTime;\n\n      // Init state\n      currentState = States.Fundraising;\n   \t}\n    \n    ///*******************///\n    ///  Getter methods   ///\n    ///*******************///\n\n    function getFundraiseAmount() public view returns (uint256) {\n    \treturn fundraiseAmount;\n    }\n\n\tfunction getInterestRate() public view returns (uint256) {\n    \treturn interestRate;\n    }\n\n    function getContractBalanceUSDC() public view returns (uint256) {\n    \treturn contractBalanceUSDC;\n    }\n\n    function getEndTimeFundraiser() public view returns (uint256) {\n    \treturn fundraiseEndTime;\n    }\n\n    function getStartTimeFundraiser() public view returns (uint256) {\n    \treturn fundraiseStartTime;\n    }\n\n    function getStartTimeOpenLoan() public view returns (uint256) {\n        return openLoanStartTime;\n    }\n\n    function getTotalLoanPayment() public view returns (uint256) {\n    \treturn totalLoanPayment;\n    }\n\n    function getCurrentContribution(address lender) public view returns (uint256) {\n    \treturn contributedUSDC[lender];\n    }\n    \n    function getLoanState() public view returns (States){\n    \treturn currentState;\n    }\n\n    function getRemainingRepayment() public view returns (uint256) {\n    \treturn calcLoanInterest() - getTotalLoanPayment();\n    }\n    ///************************///\n    ///    State Transitions   ///\n    ///************************///\n    function enoughFundsRaised() private view returns (bool) {\n        return (contractBalanceUSDC >= fundraiseAmount);\n    }\n\n    function isFundraiseOver() private view returns (bool) {\n        return (now >= fundraiseEndTime);\n    }\n    \n    function isLoanRepaid() private view returns (bool) {\n        return (contractBalanceUSDC >= calcLoanInterest());\n    }\n\n    function allSponsorTokensReturned() private view returns (bool) {\n    \treturn (balanceOf(address(this)) == totalSupply());\n    }\n\n    ///*************************///\n    ///  Token Moving Methods   ///\n    ///*************************///\n\n    // Override transfer to keep track of who holds a stake in the loan\n    function transfer(address transferRecipient, uint256 amount) public returns (bool) {\n        require(amount != 0, \"Transfer amount must be greater than 0\");\n        if (balanceOf(transferRecipient) == 0) {\n            lenders.push(transferRecipient);\n        }\n        // FIXME: The list will include people who have a sponsor token balance of zero\n        _transfer(_msgSender(), transferRecipient, amount);\n        return true;\n    }\n\n    // Function for a lender to contribute USDC to fundraiser\n    function contribute(uint256 amount) public returns (bool) {\n        require (currentState == States.Fundraising);\n        require ((amount + contractBalanceUSDC) <= fundraiseAmount);\n        require (amount > 0);\n\n        if (isFundraiseOver()) {\n        \t// Fundraise failed, returned USDC to original lenders\n      \t    returnContributions();\n\n            currentState = States.ClosedLoan;\n        }\n\n        // TransferFrom USDC amount into contract address\n        contractUSDC.transferFrom(_msgSender(), address(this), amount);\n        \n        // TODO: Only push if sender isnt in list already\n        if (contributedUSDC[msg.sender] == 0){\n        \tlenders.push(msg.sender);\n        }\n        // Default value for mapping value uint is 0, so no need to check if value exists or not\n        contributedUSDC[msg.sender] += amount;\n        contractBalanceUSDC += amount;\n\n        if (enoughFundsRaised()) {\n        \t// Set total amount of USDC funds raised\n        \tstartLoanBalanceUSDC = contractBalanceUSDC;\n        \tkickOffLoan();\n\n      \t    currentState = States.OpenLoan;\n        }\n        \n        return true;\n    }\n\n    // In case of failed fundraise return funds to lenders\n    function returnContributions() private {\n    \trequire (currentState == States.Fundraising);\n        uint i;\n    \tfor(i = 0; i < lenders.length; i++){\n    \t\tcontractUSDC.transfer(lenders[i], contributedUSDC[lenders[i]]);\n    \t\tcontractBalanceUSDC -= contributedUSDC[lenders[i]];\n    \t}\n\n    \trequire (contractBalanceUSDC == 0);\n    }\n\n    function kickOffLoan() private {\n    \trequire (currentState == States.Fundraising);\n        require (checkUSDCAccounting());\n\n        // Mint tokens to each lender equivalent to amount of USDC they put in\n      \tuint i;\n    \tfor(i = 0; i < lenders.length; i++){\n    \t\t_mint(lenders[i], contributedUSDC[lenders[i]]);\n    \t}\n    \t// TODO: Turn off minting here\n\n    \t// Send USDC Loan to recipient\n    \tcontractUSDC.transfer(recipient, contractBalanceUSDC);\n    \tcontractBalanceUSDC = 0;\n\n    \topenLoanStartTime = now;\n    }\n\n    function payLoan(uint256 amount) public returns (bool) {\n    \trequire (currentState == States.OpenLoan);\n\n\t\tcontractUSDC.transferFrom(_msgSender(), address(this), amount);\n\t\tcontractBalanceUSDC += amount;\n        // Set total amount of USDC paid back\n        totalLoanPayment = contractBalanceUSDC;\n\n\t\tif (isLoanRepaid()) {\n            // Pay back the loan to sponsors\n            distributeRepayment();\n\t\t\tcurrentState = States.ConvertLoan;\n\t\t}\n\n        return true;\n    }\n\n    function distributeRepayment() private {\n        uint256 sponsorTokenValue = sponsorTokenToUSDC();\n        for (uint i = 0; i < lenders.length; i++) {\n            uint256 reward = balanceOf(lenders[i]) * sponsorTokenValue;\n            contractUSDC.transfer(lenders[i], reward);\n        }\n    }\n\n    function sponsorTokenToUSDC() public view returns (uint256) {\n    \treturn totalLoanPayment / totalSupply();\n    }\n\n    function checkUSDCAccounting() private returns (bool) {\n    \tuint256 totalInternalUSDC = 0;\n    \tuint i;\n    \tfor(i = 0; i < lenders.length; i++){\n    \t\ttotalInternalUSDC += contributedUSDC[lenders[i]];\n    \t}\n    \treturn ((totalInternalUSDC == contractBalanceUSDC) && (contractBalanceUSDC >= contractUSDC.balanceOf(address(this))));\n    }\n\n    function calcLoanInterest() private view returns (uint256) {\n        uint timeElapsedSeconds = now - openLoanStartTime;\n        // Number of years calculated as timeElapsed in seconds / 1 years worth of seconds (31622400)\n        return fundraiseAmount * (1 + (interestRate / 10000)) ** (timeElapsedSeconds / 31622400);\n    }\n}",
  "sourcePath": "/Users/carlcortright/Documents/projects/eth-denver-2020/contracts/contracts/sponsorToken.sol",
  "compiler": {
    "name": "solc",
    "version": "0.5.16+commit.9c3226ce.Emscripten.clang"
  },
  "schemaVersion": "3.0.23",
  "updatedAt": "2020-02-23T19:32:14.572Z",
  "devdoc": {
    "methods": {
      "allowance(address,address)": {
        "details": "See {IERC20-allowance}."
      },
      "approve(address,uint256)": {
        "details": "See {IERC20-approve}.     * Requirements:     * - `spender` cannot be the zero address."
      },
      "balanceOf(address)": {
        "details": "See {IERC20-balanceOf}."
      },
      "decimals()": {
        "details": "Returns the number of decimals used to get its user representation. For example, if `decimals` equals `2`, a balance of `505` tokens should be displayed to a user as `5,05` (`505 / 10 ** 2`).     * Tokens usually opt for a value of 18, imitating the relationship between Ether and Wei.     * NOTE: This information is only used for _display_ purposes: it in no way affects any of the arithmetic of the contract, including {IERC20-balanceOf} and {IERC20-transfer}."
      },
      "decreaseAllowance(address,uint256)": {
        "details": "Atomically decreases the allowance granted to `spender` by the caller.     * This is an alternative to {approve} that can be used as a mitigation for problems described in {IERC20-approve}.     * Emits an {Approval} event indicating the updated allowance.     * Requirements:     * - `spender` cannot be the zero address. - `spender` must have allowance for the caller of at least `subtractedValue`."
      },
      "increaseAllowance(address,uint256)": {
        "details": "Atomically increases the allowance granted to `spender` by the caller.     * This is an alternative to {approve} that can be used as a mitigation for problems described in {IERC20-approve}.     * Emits an {Approval} event indicating the updated allowance.     * Requirements:     * - `spender` cannot be the zero address."
      },
      "mint(address,uint256)": {
        "details": "See {ERC20-_mint}.     * Requirements:     * - the caller must have the {MinterRole}."
      },
      "name()": {
        "details": "Returns the name of the token."
      },
      "symbol()": {
        "details": "Returns the symbol of the token, usually a shorter version of the name."
      },
      "totalSupply()": {
        "details": "See {IERC20-totalSupply}."
      },
      "transferFrom(address,address,uint256)": {
        "details": "See {IERC20-transferFrom}.     * Emits an {Approval} event indicating the updated allowance. This is not required by the EIP. See the note at the beginning of {ERC20};     * Requirements: - `sender` and `recipient` cannot be the zero address. - `sender` must have a balance of at least `amount`. - the caller must have allowance for `sender`'s tokens of at least `amount`."
      }
    }
  },
  "userdoc": {
    "methods": {
      "getFundraiseAmount()": {
        "notice": "*******************///  Getter methods   /// *******************///"
      },
      "transfer(address,uint256)": {
        "notice": "*************************///  Token Moving Methods   /// *************************///"
      }
    }
  }
}