{
  "contractName": "SponsorToken",
  "abi": [
    {
      "inputs": [
        {
          "internalType": "string",
          "name": "_name",
          "type": "string"
        },
        {
          "internalType": "string",
          "name": "_symbol",
          "type": "string"
        },
        {
          "internalType": "uint8",
          "name": "_decimals",
          "type": "uint8"
        },
        {
          "internalType": "uint256",
          "name": "_fundraiseAmount",
          "type": "uint256"
        },
        {
          "internalType": "uint256",
          "name": "_interestRate",
          "type": "uint256"
        },
        {
          "internalType": "uint256",
          "name": "_fundraiseEndTime",
          "type": "uint256"
        },
        {
          "internalType": "address",
          "name": "_addressUSDC",
          "type": "address"
        },
        {
          "internalType": "address",
          "name": "_recipient",
          "type": "address"
        }
      ],
      "payable": false,
      "stateMutability": "nonpayable",
      "type": "constructor"
    },
    {
      "anonymous": false,
      "inputs": [
        {
          "indexed": true,
          "internalType": "address",
          "name": "owner",
          "type": "address"
        },
        {
          "indexed": true,
          "internalType": "address",
          "name": "spender",
          "type": "address"
        },
        {
          "indexed": false,
          "internalType": "uint256",
          "name": "value",
          "type": "uint256"
        }
      ],
      "name": "Approval",
      "type": "event"
    },
    {
      "anonymous": false,
      "inputs": [
        {
          "indexed": true,
          "internalType": "address",
          "name": "account",
          "type": "address"
        }
      ],
      "name": "MinterAdded",
      "type": "event"
    },
    {
      "anonymous": false,
      "inputs": [
        {
          "indexed": true,
          "internalType": "address",
          "name": "account",
          "type": "address"
        }
      ],
      "name": "MinterRemoved",
      "type": "event"
    },
    {
      "anonymous": false,
      "inputs": [
        {
          "indexed": true,
          "internalType": "address",
          "name": "from",
          "type": "address"
        },
        {
          "indexed": true,
          "internalType": "address",
          "name": "to",
          "type": "address"
        },
        {
          "indexed": false,
          "internalType": "uint256",
          "name": "value",
          "type": "uint256"
        }
      ],
      "name": "Transfer",
      "type": "event"
    },
    {
      "constant": false,
      "inputs": [
        {
          "internalType": "address",
          "name": "account",
          "type": "address"
        }
      ],
      "name": "addMinter",
      "outputs": [],
      "payable": false,
      "stateMutability": "nonpayable",
      "type": "function"
    },
    {
      "constant": true,
      "inputs": [
        {
          "internalType": "address",
          "name": "owner",
          "type": "address"
        },
        {
          "internalType": "address",
          "name": "spender",
          "type": "address"
        }
      ],
      "name": "allowance",
      "outputs": [
        {
          "internalType": "uint256",
          "name": "",
          "type": "uint256"
        }
      ],
      "payable": false,
      "stateMutability": "view",
      "type": "function"
    },
    {
      "constant": false,
      "inputs": [
        {
          "internalType": "address",
          "name": "spender",
          "type": "address"
        },
        {
          "internalType": "uint256",
          "name": "amount",
          "type": "uint256"
        }
      ],
      "name": "approve",
      "outputs": [
        {
          "internalType": "bool",
          "name": "",
          "type": "bool"
        }
      ],
      "payable": false,
      "stateMutability": "nonpayable",
      "type": "function"
    },
    {
      "constant": true,
      "inputs": [
        {
          "internalType": "address",
          "name": "account",
          "type": "address"
        }
      ],
      "name": "balanceOf",
      "outputs": [
        {
          "internalType": "uint256",
          "name": "",
          "type": "uint256"
        }
      ],
      "payable": false,
      "stateMutability": "view",
      "type": "function"
    },
    {
      "constant": true,
      "inputs": [],
      "name": "decimals",
      "outputs": [
        {
          "internalType": "uint8",
          "name": "",
          "type": "uint8"
        }
      ],
      "payable": false,
      "stateMutability": "view",
      "type": "function"
    },
    {
      "constant": false,
      "inputs": [
        {
          "internalType": "address",
          "name": "spender",
          "type": "address"
        },
        {
          "internalType": "uint256",
          "name": "subtractedValue",
          "type": "uint256"
        }
      ],
      "name": "decreaseAllowance",
      "outputs": [
        {
          "internalType": "bool",
          "name": "",
          "type": "bool"
        }
      ],
      "payable": false,
      "stateMutability": "nonpayable",
      "type": "function"
    },
    {
      "constant": false,
      "inputs": [
        {
          "internalType": "address",
          "name": "spender",
          "type": "address"
        },
        {
          "internalType": "uint256",
          "name": "addedValue",
          "type": "uint256"
        }
      ],
      "name": "increaseAllowance",
      "outputs": [
        {
          "internalType": "bool",
          "name": "",
          "type": "bool"
        }
      ],
      "payable": false,
      "stateMutability": "nonpayable",
      "type": "function"
    },
    {
      "constant": true,
      "inputs": [
        {
          "internalType": "address",
          "name": "account",
          "type": "address"
        }
      ],
      "name": "isMinter",
      "outputs": [
        {
          "internalType": "bool",
          "name": "",
          "type": "bool"
        }
      ],
      "payable": false,
      "stateMutability": "view",
      "type": "function"
    },
    {
      "constant": false,
      "inputs": [
        {
          "internalType": "address",
          "name": "account",
          "type": "address"
        },
        {
          "internalType": "uint256",
          "name": "amount",
          "type": "uint256"
        }
      ],
      "name": "mint",
      "outputs": [
        {
          "internalType": "bool",
          "name": "",
          "type": "bool"
        }
      ],
      "payable": false,
      "stateMutability": "nonpayable",
      "type": "function"
    },
    {
      "constant": true,
      "inputs": [],
      "name": "name",
      "outputs": [
        {
          "internalType": "string",
          "name": "",
          "type": "string"
        }
      ],
      "payable": false,
      "stateMutability": "view",
      "type": "function"
    },
    {
      "constant": false,
      "inputs": [],
      "name": "renounceMinter",
      "outputs": [],
      "payable": false,
      "stateMutability": "nonpayable",
      "type": "function"
    },
    {
      "constant": true,
      "inputs": [],
      "name": "symbol",
      "outputs": [
        {
          "internalType": "string",
          "name": "",
          "type": "string"
        }
      ],
      "payable": false,
      "stateMutability": "view",
      "type": "function"
    },
    {
      "constant": true,
      "inputs": [],
      "name": "totalSupply",
      "outputs": [
        {
          "internalType": "uint256",
          "name": "",
          "type": "uint256"
        }
      ],
      "payable": false,
      "stateMutability": "view",
      "type": "function"
    },
    {
      "constant": false,
      "inputs": [
        {
          "internalType": "address",
          "name": "recipient",
          "type": "address"
        },
        {
          "internalType": "uint256",
          "name": "amount",
          "type": "uint256"
        }
      ],
      "name": "transfer",
      "outputs": [
        {
          "internalType": "bool",
          "name": "",
          "type": "bool"
        }
      ],
      "payable": false,
      "stateMutability": "nonpayable",
      "type": "function"
    },
    {
      "constant": false,
      "inputs": [
        {
          "internalType": "address",
          "name": "sender",
          "type": "address"
        },
        {
          "internalType": "address",
          "name": "recipient",
          "type": "address"
        },
        {
          "internalType": "uint256",
          "name": "amount",
          "type": "uint256"
        }
      ],
      "name": "transferFrom",
      "outputs": [
        {
          "internalType": "bool",
          "name": "",
          "type": "bool"
        }
      ],
      "payable": false,
      "stateMutability": "nonpayable",
      "type": "function"
    },
    {
      "constant": true,
      "inputs": [],
      "name": "getFundraiseAmount",
      "outputs": [
        {
          "internalType": "uint256",
          "name": "",
          "type": "uint256"
        }
      ],
      "payable": false,
      "stateMutability": "view",
      "type": "function"
    },
    {
      "constant": true,
      "inputs": [],
      "name": "getInterestRate",
      "outputs": [
        {
          "internalType": "uint256",
          "name": "",
          "type": "uint256"
        }
      ],
      "payable": false,
      "stateMutability": "view",
      "type": "function"
    },
    {
      "constant": true,
      "inputs": [],
      "name": "getContractBalanceUSDC",
      "outputs": [
        {
          "internalType": "uint256",
          "name": "",
          "type": "uint256"
        }
      ],
      "payable": false,
      "stateMutability": "view",
      "type": "function"
    },
    {
      "constant": true,
      "inputs": [],
      "name": "getEndTimeFundraiser",
      "outputs": [
        {
          "internalType": "uint256",
          "name": "",
          "type": "uint256"
        }
      ],
      "payable": false,
      "stateMutability": "view",
      "type": "function"
    },
    {
      "constant": true,
      "inputs": [],
      "name": "getStartTimeFundraiser",
      "outputs": [
        {
          "internalType": "uint256",
          "name": "",
          "type": "uint256"
        }
      ],
      "payable": false,
      "stateMutability": "view",
      "type": "function"
    },
    {
      "constant": true,
      "inputs": [],
      "name": "getTotalLoanPayment",
      "outputs": [
        {
          "internalType": "uint256",
          "name": "",
          "type": "uint256"
        }
      ],
      "payable": false,
      "stateMutability": "view",
      "type": "function"
    },
    {
      "constant": true,
      "inputs": [
        {
          "internalType": "address",
          "name": "lender",
          "type": "address"
        }
      ],
      "name": "getCurrentContribution",
      "outputs": [
        {
          "internalType": "uint256",
          "name": "",
          "type": "uint256"
        }
      ],
      "payable": false,
      "stateMutability": "view",
      "type": "function"
    },
    {
      "constant": false,
      "inputs": [],
      "name": "changeState",
      "outputs": [
        {
          "internalType": "bool",
          "name": "",
          "type": "bool"
        }
      ],
      "payable": false,
      "stateMutability": "nonpayable",
      "type": "function"
    },
    {
      "constant": false,
      "inputs": [
        {
          "internalType": "uint256",
          "name": "amount",
          "type": "uint256"
        }
      ],
      "name": "contribute",
      "outputs": [
        {
          "internalType": "bool",
          "name": "",
          "type": "bool"
        }
      ],
      "payable": false,
      "stateMutability": "nonpayable",
      "type": "function"
    },
    {
      "constant": true,
      "inputs": [],
      "name": "sponsorTokenToUSDC",
      "outputs": [
        {
          "internalType": "uint256",
          "name": "",
          "type": "uint256"
        }
      ],
      "payable": false,
      "stateMutability": "view",
      "type": "function"
    }
  ],
  "bytecode": "0x60806040523480156200001157600080fd5b5060405162002bf438038062002bf483398181016040526101008110156200003857600080fd5b81019080805160405193929190846401000000008211156200005957600080fd5b838201915060208201858111156200007057600080fd5b82518660018202830111640100000000821117156200008e57600080fd5b8083526020830192505050908051906020019080838360005b83811015620000c4578082015181840152602081019050620000a7565b50505050905090810190601f168015620000f25780820380516001836020036101000a031916815260200191505b50604052602001805160405193929190846401000000008211156200011657600080fd5b838201915060208201858111156200012d57600080fd5b82518660018202830111640100000000821117156200014b57600080fd5b8083526020830192505050908051906020019080838360005b838110156200018157808201518184015260208101905062000164565b50505050905090810190601f168015620001af5780820380516001836020036101000a031916815260200191505b50604052602001805190602001909291908051906020019092919080519060200190929190805190602001909291908051906020019092919080519060200190929190505050878787620002186200020c6200033960201b60201c565b6200034160201b60201c565b82600490805190602001906200023092919062000566565b5081600590805190602001906200024992919062000566565b5080600660006101000a81548160ff021916908360ff160217905550505050846007819055508360088190555081600d60006101000a81548173ffffffffffffffffffffffffffffffffffffffff021916908373ffffffffffffffffffffffffffffffffffffffff16021790555080600c60006101000a81548173ffffffffffffffffffffffffffffffffffffffff021916908373ffffffffffffffffffffffffffffffffffffffff1602179055504260098190555082600a819055506000600d60146101000a81548160ff021916908360038111156200032657fe5b0217905550505050505050505062000615565b600033905090565b6200035c816003620003a260201b620022381790919060201c565b8073ffffffffffffffffffffffffffffffffffffffff167f6ae172837ea30b801fbfcdd4108aa1d5bf8ff775444fd70256b44e6bf3dfc3f660405160405180910390a250565b620003b482826200048660201b60201c565b1562000428576040517f08c379a000000000000000000000000000000000000000000000000000000000815260040180806020018281038252601f8152602001807f526f6c65733a206163636f756e7420616c72656164792068617320726f6c650081525060200191505060405180910390fd5b60018260000160008373ffffffffffffffffffffffffffffffffffffffff1673ffffffffffffffffffffffffffffffffffffffff16815260200190815260200160002060006101000a81548160ff0219169083151502179055505050565b60008073ffffffffffffffffffffffffffffffffffffffff168273ffffffffffffffffffffffffffffffffffffffff1614156200050f576040517f08c379a000000000000000000000000000000000000000000000000000000000815260040180806020018281038252602281526020018062002bd26022913960400191505060405180910390fd5b8260000160008373ffffffffffffffffffffffffffffffffffffffff1673ffffffffffffffffffffffffffffffffffffffff16815260200190815260200160002060009054906101000a900460ff16905092915050565b828054600181600116156101000203166002900490600052602060002090601f016020900481019282601f10620005a957805160ff1916838001178555620005da565b82800160010185558215620005da579182015b82811115620005d9578251825591602001919060010190620005bc565b5b509050620005e99190620005ed565b5090565b6200061291905b808211156200060e576000816000905550600101620005f4565b5090565b90565b6125ad80620006256000396000f3fe608060405234801561001057600080fd5b50600436106101735760003560e01c806370a08231116100de578063a9059cbb11610097578063dd62ed3e11610071578063dd62ed3e1461077e578063eef656b8146107f6578063f1139caa14610814578063f48004671461083257610173565b8063a9059cbb14610676578063aa271e1a146106dc578063c1cbbca71461073857610173565b806370a08231146104c55780638412e6671461051d57806395d89b411461053f578063983b2d56146105c25780639865027514610606578063a457c2d71461061057610173565b8063313ce56711610130578063313ce5671461034157806339509351146103655780633a367aea146103cb57806340c10f19146103e957806341ee6ab21461044f5780635257b566146104a757610173565b806306fdde03146101785780630729019b146101fb578063095ea7b31461021957806318160ddd1461027f57806323b872dd1461029d5780632f1961cd14610323575b600080fd5b610180610850565b6040518080602001828103825283818151815260200191508051906020019080838360005b838110156101c05780820151818401526020810190506101a5565b50505050905090810190601f1680156101ed5780820380516001836020036101000a031916815260200191505b509250505060405180910390f35b6102036108f2565b6040518082815260200191505060405180910390f35b6102656004803603604081101561022f57600080fd5b81019080803573ffffffffffffffffffffffffffffffffffffffff1690602001909291908035906020019092919050505061090c565b604051808215151515815260200191505060405180910390f35b61028761092a565b6040518082815260200191505060405180910390f35b610309600480360360608110156102b357600080fd5b81019080803573ffffffffffffffffffffffffffffffffffffffff169060200190929190803573ffffffffffffffffffffffffffffffffffffffff16906020019092919080359060200190929190505050610934565b604051808215151515815260200191505060405180910390f35b61032b610a0d565b6040518082815260200191505060405180910390f35b610349610a17565b604051808260ff1660ff16815260200191505060405180910390f35b6103b16004803603604081101561037b57600080fd5b81019080803573ffffffffffffffffffffffffffffffffffffffff16906020019092919080359060200190929190505050610a2e565b604051808215151515815260200191505060405180910390f35b6103d3610ae1565b6040518082815260200191505060405180910390f35b610435600480360360408110156103ff57600080fd5b81019080803573ffffffffffffffffffffffffffffffffffffffff16906020019092919080359060200190929190505050610aeb565b604051808215151515815260200191505060405180910390f35b6104916004803603602081101561046557600080fd5b81019080803573ffffffffffffffffffffffffffffffffffffffff169060200190929190505050610b66565b6040518082815260200191505060405180910390f35b6104af610baf565b6040518082815260200191505060405180910390f35b610507600480360360208110156104db57600080fd5b81019080803573ffffffffffffffffffffffffffffffffffffffff169060200190929190505050610bb9565b6040518082815260200191505060405180910390f35b610525610c01565b604051808215151515815260200191505060405180910390f35b610547610db8565b6040518080602001828103825283818151815260200191508051906020019080838360005b8381101561058757808201518184015260208101905061056c565b50505050905090810190601f1680156105b45780820380516001836020036101000a031916815260200191505b509250505060405180910390f35b610604600480360360208110156105d857600080fd5b81019080803573ffffffffffffffffffffffffffffffffffffffff169060200190929190505050610e5a565b005b61060e610ecb565b005b61065c6004803603604081101561062657600080fd5b81019080803573ffffffffffffffffffffffffffffffffffffffff16906020019092919080359060200190929190505050610edd565b604051808215151515815260200191505060405180910390f35b6106c26004803603604081101561068c57600080fd5b81019080803573ffffffffffffffffffffffffffffffffffffffff16906020019092919080359060200190929190505050610faa565b604051808215151515815260200191505060405180910390f35b61071e600480360360208110156106f257600080fd5b81019080803573ffffffffffffffffffffffffffffffffffffffff169060200190929190505050610fc8565b604051808215151515815260200191505060405180910390f35b6107646004803603602081101561074e57600080fd5b8101908080359060200190929190505050610fe5565b604051808215151515815260200191505060405180910390f35b6107e06004803603604081101561079457600080fd5b81019080803573ffffffffffffffffffffffffffffffffffffffff169060200190929190803573ffffffffffffffffffffffffffffffffffffffff1690602001909291905050506111ec565b6040518082815260200191505060405180910390f35b6107fe611273565b6040518082815260200191505060405180910390f35b61081c61127d565b6040518082815260200191505060405180910390f35b61083a611287565b6040518082815260200191505060405180910390f35b606060048054600181600116156101000203166002900480601f0160208091040260200160405190810160405280929190818152602001828054600181600116156101000203166002900480156108e85780601f106108bd576101008083540402835291602001916108e8565b820191906000526020600020905b8154815290600101906020018083116108cb57829003601f168201915b5050505050905090565b60006108fc61092a565b6010548161090657fe5b04905090565b6000610920610919611291565b8484611299565b6001905092915050565b6000600254905090565b6000610941848484611490565b610a028461094d611291565b6109fd856040518060600160405280602881526020016124c160289139600160008b73ffffffffffffffffffffffffffffffffffffffff1673ffffffffffffffffffffffffffffffffffffffff16815260200190815260200160002060006109b3611291565b73ffffffffffffffffffffffffffffffffffffffff1673ffffffffffffffffffffffffffffffffffffffff168152602001908152602001600020546117469092919063ffffffff16565b611299565b600190509392505050565b6000600954905090565b6000600660009054906101000a900460ff16905090565b6000610ad7610a3b611291565b84610ad28560016000610a4c611291565b73ffffffffffffffffffffffffffffffffffffffff1673ffffffffffffffffffffffffffffffffffffffff16815260200190815260200160002060008973ffffffffffffffffffffffffffffffffffffffff1673ffffffffffffffffffffffffffffffffffffffff1681526020019081526020016000205461180690919063ffffffff16565b611299565b6001905092915050565b6000600e54905090565b6000610afd610af8611291565b610fc8565b610b52576040517f08c379a00000000000000000000000000000000000000000000000000000000081526004018080602001828103825260308152602001806124706030913960400191505060405180910390fd5b610b5c838361188e565b6001905092915050565b6000601160008373ffffffffffffffffffffffffffffffffffffffff1673ffffffffffffffffffffffffffffffffffffffff168152602001908152602001600020549050919050565b6000600854905090565b60008060008373ffffffffffffffffffffffffffffffffffffffff1673ffffffffffffffffffffffffffffffffffffffff168152602001908152602001600020549050919050565b6000806003811115610c0f57fe5b600d60149054906101000a900460ff166003811115610c2a57fe5b1415610cc257610c38611a49565b15610c7b57600e54600f81905550610c4e611a58565b6001600d60146101000a81548160ff02191690836003811115610c6d57fe5b021790555060019050610db5565b610c83611c6a565b15610cbd57610c90611c77565b6003600d60146101000a81548160ff02191690836003811115610caf57fe5b021790555060019050610db5565b610db0565b60016003811115610ccf57fe5b600d60149054906101000a900460ff166003811115610cea57fe5b1415610d3857610cf8611ecf565b15610d3357600e546010819055506002600d60146101000a81548160ff02191690836003811115610d2557fe5b021790555060019050610db5565b610daf565b60026003811115610d4557fe5b600d60149054906101000a900460ff166003811115610d6057fe5b1415610da557610d6e611ee3565b15610da0576003600d60146101000a81548160ff02191690836003811115610d9257fe5b021790555060019050610db5565b610dae565b60009050610db5565b5b5b600090505b90565b606060058054600181600116156101000203166002900480601f016020809104026020016040519081016040528092919081815260200182805460018160011615610100020316600290048015610e505780601f10610e2557610100808354040283529160200191610e50565b820191906000526020600020905b815481529060010190602001808311610e3357829003601f168201915b5050505050905090565b610e6a610e65611291565b610fc8565b610ebf576040517f08c379a00000000000000000000000000000000000000000000000000000000081526004018080602001828103825260308152602001806124706030913960400191505060405180910390fd5b610ec881611efc565b50565b610edb610ed6611291565b611f56565b565b6000610fa0610eea611291565b84610f9b856040518060600160405280602581526020016125546025913960016000610f14611291565b73ffffffffffffffffffffffffffffffffffffffff1673ffffffffffffffffffffffffffffffffffffffff16815260200190815260200160002060008a73ffffffffffffffffffffffffffffffffffffffff1673ffffffffffffffffffffffffffffffffffffffff168152602001908152602001600020546117469092919063ffffffff16565b611299565b6001905092915050565b6000610fbe610fb7611291565b8484611490565b6001905092915050565b6000610fde826003611fb090919063ffffffff16565b9050919050565b6000806003811115610ff357fe5b600d60149054906101000a900460ff16600381111561100e57fe5b1461101857600080fd5b600754600e548301111561102b57600080fd5b600d60009054906101000a900473ffffffffffffffffffffffffffffffffffffffff1673ffffffffffffffffffffffffffffffffffffffff166323b872dd3330856040518463ffffffff1660e01b8152600401808473ffffffffffffffffffffffffffffffffffffffff1673ffffffffffffffffffffffffffffffffffffffff1681526020018373ffffffffffffffffffffffffffffffffffffffff1673ffffffffffffffffffffffffffffffffffffffff1681526020018281526020019350505050600060405180830381600087803b15801561110857600080fd5b505af115801561111c573d6000803e3d6000fd5b5050505060123390806001815401808255809150509060018203906000526020600020016000909192909190916101000a81548173ffffffffffffffffffffffffffffffffffffffff021916908373ffffffffffffffffffffffffffffffffffffffff1602179055505081601160003373ffffffffffffffffffffffffffffffffffffffff1673ffffffffffffffffffffffffffffffffffffffff1681526020019081526020016000206000828254019250508190555081600e6000828254019250508190555060019050919050565b6000600160008473ffffffffffffffffffffffffffffffffffffffff1673ffffffffffffffffffffffffffffffffffffffff16815260200190815260200160002060008373ffffffffffffffffffffffffffffffffffffffff1673ffffffffffffffffffffffffffffffffffffffff16815260200190815260200160002054905092915050565b6000600754905090565b6000600a54905090565b6000601054905090565b600033905090565b600073ffffffffffffffffffffffffffffffffffffffff168373ffffffffffffffffffffffffffffffffffffffff16141561131f576040517f08c379a00000000000000000000000000000000000000000000000000000000081526004018080602001828103825260248152602001806125306024913960400191505060405180910390fd5b600073ffffffffffffffffffffffffffffffffffffffff168273ffffffffffffffffffffffffffffffffffffffff1614156113a5576040517f08c379a00000000000000000000000000000000000000000000000000000000081526004018080602001828103825260228152602001806124286022913960400191505060405180910390fd5b80600160008573ffffffffffffffffffffffffffffffffffffffff1673ffffffffffffffffffffffffffffffffffffffff16815260200190815260200160002060008473ffffffffffffffffffffffffffffffffffffffff1673ffffffffffffffffffffffffffffffffffffffff168152602001908152602001600020819055508173ffffffffffffffffffffffffffffffffffffffff168373ffffffffffffffffffffffffffffffffffffffff167f8c5be1e5ebec7d5bd14f71427d1e84f3dd0314c0f7b2291e5b200ac8c7c3b925836040518082815260200191505060405180910390a3505050565b600073ffffffffffffffffffffffffffffffffffffffff168373ffffffffffffffffffffffffffffffffffffffff161415611516576040517f08c379a000000000000000000000000000000000000000000000000000000000815260040180806020018281038252602581526020018061250b6025913960400191505060405180910390fd5b600073ffffffffffffffffffffffffffffffffffffffff168273ffffffffffffffffffffffffffffffffffffffff16141561159c576040517f08c379a00000000000000000000000000000000000000000000000000000000081526004018080602001828103825260238152602001806124056023913960400191505060405180910390fd5b6116078160405180606001604052806026815260200161244a602691396000808773ffffffffffffffffffffffffffffffffffffffff1673ffffffffffffffffffffffffffffffffffffffff168152602001908152602001600020546117469092919063ffffffff16565b6000808573ffffffffffffffffffffffffffffffffffffffff1673ffffffffffffffffffffffffffffffffffffffff1681526020019081526020016000208190555061169a816000808573ffffffffffffffffffffffffffffffffffffffff1673ffffffffffffffffffffffffffffffffffffffff1681526020019081526020016000205461180690919063ffffffff16565b6000808473ffffffffffffffffffffffffffffffffffffffff1673ffffffffffffffffffffffffffffffffffffffff168152602001908152602001600020819055508173ffffffffffffffffffffffffffffffffffffffff168373ffffffffffffffffffffffffffffffffffffffff167fddf252ad1be2c89b69c2b068fc378daa952ba7f163c4a11628f55a4df523b3ef836040518082815260200191505060405180910390a3505050565b60008383111582906117f3576040517f08c379a00000000000000000000000000000000000000000000000000000000081526004018080602001828103825283818151815260200191508051906020019080838360005b838110156117b857808201518184015260208101905061179d565b50505050905090810190601f1680156117e55780820380516001836020036101000a031916815260200191505b509250505060405180910390fd5b5060008385039050809150509392505050565b600080828401905083811015611884576040517f08c379a000000000000000000000000000000000000000000000000000000000815260040180806020018281038252601b8152602001807f536166654d6174683a206164646974696f6e206f766572666c6f77000000000081525060200191505060405180910390fd5b8091505092915050565b600073ffffffffffffffffffffffffffffffffffffffff168273ffffffffffffffffffffffffffffffffffffffff161415611931576040517f08c379a000000000000000000000000000000000000000000000000000000000815260040180806020018281038252601f8152602001807f45524332303a206d696e7420746f20746865207a65726f20616464726573730081525060200191505060405180910390fd5b6119468160025461180690919063ffffffff16565b60028190555061199d816000808573ffffffffffffffffffffffffffffffffffffffff1673ffffffffffffffffffffffffffffffffffffffff1681526020019081526020016000205461180690919063ffffffff16565b6000808473ffffffffffffffffffffffffffffffffffffffff1673ffffffffffffffffffffffffffffffffffffffff168152602001908152602001600020819055508173ffffffffffffffffffffffffffffffffffffffff16600073ffffffffffffffffffffffffffffffffffffffff167fddf252ad1be2c89b69c2b068fc378daa952ba7f163c4a11628f55a4df523b3ef836040518082815260200191505060405180910390a35050565b6000600754600e541015905090565b60006003811115611a6557fe5b600d60149054906101000a900460ff166003811115611a8057fe5b14611a8a57600080fd5b611a9261208e565b611a9b57600080fd5b60008090505b601280549050811015611b7357611b6560128281548110611abe57fe5b9060005260206000200160009054906101000a900473ffffffffffffffffffffffffffffffffffffffff166011600060128581548110611afa57fe5b9060005260206000200160009054906101000a900473ffffffffffffffffffffffffffffffffffffffff1673ffffffffffffffffffffffffffffffffffffffff1673ffffffffffffffffffffffffffffffffffffffff16815260200190815260200160002054610aeb565b508080600101915050611aa1565b600d60009054906101000a900473ffffffffffffffffffffffffffffffffffffffff1673ffffffffffffffffffffffffffffffffffffffff1663a9059cbb600c60009054906101000a900473ffffffffffffffffffffffffffffffffffffffff16600e546040518363ffffffff1660e01b8152600401808373ffffffffffffffffffffffffffffffffffffffff1673ffffffffffffffffffffffffffffffffffffffff16815260200182815260200192505050600060405180830381600087803b158015611c4057600080fd5b505af1158015611c54573d6000803e3d6000fd5b505050506000600e8190555042600b8190555050565b6000600a54421015905090565b60006003811115611c8457fe5b600d60149054906101000a900460ff166003811115611c9f57fe5b14611ca957600080fd5b60008090505b601280549050811015611ebd57600d60009054906101000a900473ffffffffffffffffffffffffffffffffffffffff1673ffffffffffffffffffffffffffffffffffffffff1663a9059cbb60128381548110611d0757fe5b9060005260206000200160009054906101000a900473ffffffffffffffffffffffffffffffffffffffff166011600060128681548110611d4357fe5b9060005260206000200160009054906101000a900473ffffffffffffffffffffffffffffffffffffffff1673ffffffffffffffffffffffffffffffffffffffff1673ffffffffffffffffffffffffffffffffffffffff168152602001908152602001600020546040518363ffffffff1660e01b8152600401808373ffffffffffffffffffffffffffffffffffffffff1673ffffffffffffffffffffffffffffffffffffffff16815260200182815260200192505050600060405180830381600087803b158015611e1257600080fd5b505af1158015611e26573d6000803e3d6000fd5b505050506011600060128381548110611e3b57fe5b9060005260206000200160009054906101000a900473ffffffffffffffffffffffffffffffffffffffff1673ffffffffffffffffffffffffffffffffffffffff1673ffffffffffffffffffffffffffffffffffffffff16815260200190815260200160002054600e600082825403925050819055508080600101915050611caf565b6000600e5414611ecc57600080fd5b50565b6000611ed9612225565b600e541015905090565b6000611eed61092a565b611ef630610bb9565b14905090565b611f1081600361223890919063ffffffff16565b8073ffffffffffffffffffffffffffffffffffffffff167f6ae172837ea30b801fbfcdd4108aa1d5bf8ff775444fd70256b44e6bf3dfc3f660405160405180910390a250565b611f6a81600361231390919063ffffffff16565b8073ffffffffffffffffffffffffffffffffffffffff167fe94479a9f7e1952cc78f2d6baab678adc1b772d936c6583def489e524cb6669260405160405180910390a250565b60008073ffffffffffffffffffffffffffffffffffffffff168273ffffffffffffffffffffffffffffffffffffffff161415612037576040517f08c379a00000000000000000000000000000000000000000000000000000000081526004018080602001828103825260228152602001806124e96022913960400191505060405180910390fd5b8260000160008373ffffffffffffffffffffffffffffffffffffffff1673ffffffffffffffffffffffffffffffffffffffff16815260200190815260200160002060009054906101000a900460ff16905092915050565b6000806000905060008090505b6012805490508110156121305760116000601283815481106120b957fe5b9060005260206000200160009054906101000a900473ffffffffffffffffffffffffffffffffffffffff1673ffffffffffffffffffffffffffffffffffffffff1673ffffffffffffffffffffffffffffffffffffffff1681526020019081526020016000205482019150808060010191505061209b565b600e548214801561221e5750600d60009054906101000a900473ffffffffffffffffffffffffffffffffffffffff1673ffffffffffffffffffffffffffffffffffffffff166370a08231306040518263ffffffff1660e01b8152600401808273ffffffffffffffffffffffffffffffffffffffff1673ffffffffffffffffffffffffffffffffffffffff168152602001915050602060405180830381600087803b1580156121dd57600080fd5b505af11580156121f1573d6000803e3d6000fd5b505050506040513d602081101561220757600080fd5b8101908080519060200190929190505050600e5410155b9250505090565b600061222f6123d0565b600f5401905090565b6122428282611fb0565b156122b5576040517f08c379a000000000000000000000000000000000000000000000000000000000815260040180806020018281038252601f8152602001807f526f6c65733a206163636f756e7420616c72656164792068617320726f6c650081525060200191505060405180910390fd5b60018260000160008373ffffffffffffffffffffffffffffffffffffffff1673ffffffffffffffffffffffffffffffffffffffff16815260200190815260200160002060006101000a81548160ff0219169083151502179055505050565b61231d8282611fb0565b612372576040517f08c379a00000000000000000000000000000000000000000000000000000000081526004018080602001828103825260218152602001806124a06021913960400191505060405180910390fd5b60008260000160008373ffffffffffffffffffffffffffffffffffffffff1673ffffffffffffffffffffffffffffffffffffffff16815260200190815260200160002060006101000a81548160ff0219169083151502179055505050565b600080600b54420390506301e2850081816123e757fe5b04612710600854816123f557fe5b046001010a600754029150509056fe45524332303a207472616e7366657220746f20746865207a65726f206164647265737345524332303a20617070726f766520746f20746865207a65726f206164647265737345524332303a207472616e7366657220616d6f756e7420657863656564732062616c616e63654d696e746572526f6c653a2063616c6c657220646f6573206e6f74206861766520746865204d696e74657220726f6c65526f6c65733a206163636f756e7420646f6573206e6f74206861766520726f6c6545524332303a207472616e7366657220616d6f756e74206578636565647320616c6c6f77616e6365526f6c65733a206163636f756e7420697320746865207a65726f206164647265737345524332303a207472616e736665722066726f6d20746865207a65726f206164647265737345524332303a20617070726f76652066726f6d20746865207a65726f206164647265737345524332303a2064656372656173656420616c6c6f77616e63652062656c6f77207a65726fa265627a7a72315820e61e9fd46abda84ee86a6a90135564795956ebb2118b51d88372ce108a81310a64736f6c63430005100032526f6c65733a206163636f756e7420697320746865207a65726f2061646472657373",
  "source": "pragma solidity ^0.5.0;\n \nimport \"@openzeppelin/contracts/token/ERC20/ERC20.sol\";\nimport \"@openzeppelin/contracts/token/ERC20/ERC20Mintable.sol\";\nimport \"@openzeppelin/contracts/token/ERC20/ERC20Detailed.sol\";\n\n// For USDC Token contract\ncontract ERC20Token {\n  function transferFrom(address from, address to, uint value) public;\n  function transfer(address recipient, uint256 amount) public;\n  function balanceOf(address account) public returns (uint256);\n}\n \ncontract SponsorToken is ERC20, ERC20Mintable, ERC20Detailed{\n\t// Metadata about fundraise\n    uint256 private fundraiseAmount;\n   \tuint256 private interestRate;\n\n    uint256 private fundraiseStartTime;\n    uint256 private fundraiseEndTime;\n\n    uint256 private openLoanStartTime;\n\n   \taddress private recipient;\n\n    ERC20Token contractUSDC;\n\n   \t// Fundraise states\n   \tenum States { Fundraising, OpenLoan, ConvertLoan, ClosedLoan }\n\n   \t// Current state\n   \tStates currentState;\n   \t// How much USDC the contract owns (through contract interaction, no transfers)\n    uint256 contractBalanceUSDC;\n    // Total USDC that was loaned at end of Fundraising/ start of OpenLoan\n   \tuint256 startLoanBalanceUSDC;\n   \t// Total USDC that was paid by recipient at end of OpenLoan/ start of ConvertLoan\n   \tuint256 totalLoanPayment;\n\n   \tmapping (address => uint256) private contributedUSDC;\n   \taddress[] lenders;\n\n    constructor(\n    \tstring memory _name,\n    \tstring memory _symbol,\n    \tuint8 _decimals,\n    \tuint256 _fundraiseAmount,\n    \tuint256 _interestRate,\n    \tuint256 _fundraiseEndTime,\n    \taddress _addressUSDC,\n    \taddress _recipient\n    )\n    \tERC20Detailed(\n    \t\t_name,\n    \t\t_symbol,\n    \t\t_decimals\n    \t) \n    \tpublic \n    { \n      // Set metadata\n      fundraiseAmount = _fundraiseAmount;\n      interestRate = _interestRate;\n      contractUSDC = ERC20Token(_addressUSDC);\n      recipient = _recipient;\n\n      // Start time of fundraiser is unix time of block\n      fundraiseStartTime = now;\n      fundraiseEndTime = _fundraiseEndTime;\n\n      // Init state\n      currentState = States.Fundraising;\n   \t}\n    \n    ///*******************///\n    ///  Getter methods   ///\n    ///*******************///\n\n    function getFundraiseAmount() public view returns (uint256) {\n    \treturn fundraiseAmount;\n    }\n\n\tfunction getInterestRate() public view returns (uint256) {\n    \treturn interestRate;\n    }\n\n    function getContractBalanceUSDC() public view returns (uint256) {\n    \treturn contractBalanceUSDC;\n    }\n\n    function getEndTimeFundraiser() public view returns (uint256) {\n    \treturn fundraiseEndTime;\n    }\n\n    function getStartTimeFundraiser() public view returns (uint256) {\n    \treturn fundraiseStartTime;\n    }\n\n    function getTotalLoanPayment() public view returns (uint256) {\n    \treturn totalLoanPayment;\n    }\n\n    function getCurrentContribution(address lender) public view returns (uint256) {\n    \treturn contributedUSDC[lender];\n    }\n    \n    ///************************///\n    ///    State Transitions   ///\n    ///************************///\n    function enoughFundsRaised() private view returns (bool) {\n        return (contractBalanceUSDC >= fundraiseAmount);\n    }\n\n    function isFundraiseOver() private view returns (bool) {\n        return (now >= fundraiseEndTime);\n    }\n    \n    function isLoanRepaid() private view returns (bool) {\n        return (contractBalanceUSDC >= calcLoanRepayment());\n    }\n\n    function allSponsorTokensReturned() private view returns (bool) {\n    \treturn (balanceOf(address(this)) == totalSupply());\n    }\n    \n    // Public function for anyone to update state based on contract funds\n    // Returns true of state changed, false if state remains the same\n    // Should we return the state?\n    function changeState() public returns (bool) {\n    \tif (currentState == States.Fundraising) {\n            if (enoughFundsRaised()) {\n            \t// Set total amount of USDC funds raised\n            \tstartLoanBalanceUSDC = contractBalanceUSDC;\n            \tkickOffLoan();\n\n          \t    currentState = States.OpenLoan;\n          \t    return true;\n            }\n            if (isFundraiseOver()) {\n            \t// Fundraise failed, returned USDC to original lenders\n          \t    returnContributions();\n\n                currentState = States.ClosedLoan;\n                return true;\n            }\n    \t} else if (currentState == States.OpenLoan) {\n    \t\t// Check if enough USDC has been deposited into contract to begin converts\n    \t\tif (isLoanRepaid()) {\n    \t\t\t// Set total amount of USDC paid back\n    \t\t\ttotalLoanPayment = contractBalanceUSDC;\n\n    \t\t\tcurrentState = States.ConvertLoan;\n    \t\t\treturn true;\n    \t\t}\n    \t} else if (currentState == States.ConvertLoan) {\n    \t\t// Check if all the sponsor tokens have been returned to contract\n    \t\tif (allSponsorTokensReturned()) {\n    \t\t\tcurrentState = States.ClosedLoan;\n\n    \t\t\treturn true;\n    \t\t}\n    \t} else { \n    \t\t// state is closed, nothing actionable\n    \t\treturn false;\n    \t}\n\n    \treturn false;\n    }\n\n    ///*************************///\n    ///  Token Moving Methods   ///\n    ///*************************///\n\n    // Function for a lender to contribute USDC to fundraiser\n    function contribute(uint256 amount) public returns (bool) {\n        require (currentState == States.Fundraising);\n        require (amount + contractBalanceUSDC <= fundraiseAmount);\n\n        // TransferFrom USDC amount into contract address\n        contractUSDC.transferFrom(msg.sender, address(this), amount);\n\n        lenders.push(msg.sender);\n        // Default value for mapping value uint is 0, so no need to check if value exists or not\n        contributedUSDC[msg.sender] += amount;\n        contractBalanceUSDC += amount;\n\n        return true;\n    }\n\n    // In case of failed fundraise return funds to lenders\n    function returnContributions() private {\n    \trequire (currentState == States.Fundraising);\n        uint i;\n    \tfor(i = 0; i < lenders.length; i++){\n    \t\tcontractUSDC.transfer(lenders[i], contributedUSDC[lenders[i]]);\n    \t\tcontractBalanceUSDC -= contributedUSDC[lenders[i]];\n    \t}\n\n    \trequire (contractBalanceUSDC == 0);\n    }\n\n    function kickOffLoan() private {\n    \trequire (currentState == States.Fundraising);\n        require (checkUSDCAccounting());\n\n        // Mint tokens to each lender equivalent to amount of USDC they put in\n      \tuint i;\n    \tfor(i = 0; i < lenders.length; i++){\n    \t\tmint(lenders[i], contributedUSDC[lenders[i]]);\n    \t}\n    \t// TODO: Turn off minting here\n\n    \t// Send USDC Loan to recipient\n    \tcontractUSDC.transfer(recipient, contractBalanceUSDC);\n    \tcontractBalanceUSDC = 0;\n\n    \topenLoanStartTime = now;\n    }\n\n    function payLoan(uint256 amount) private {\n    \trequire (currentState == States.OpenLoan);\n    \t// Only allow recipient to payback loan\n    \trequire (msg.sender == recipient);\n\n\t\tcontractUSDC.transferFrom(address(this), msg.sender, amount);\n\t\tcontractBalanceUSDC += 0;\n    }\n\n    function convertSponsorToken(uint256 amount) private {\n    \trequire (currentState == States.ConvertLoan);\n    \trequire (contractBalanceUSDC >= amount);\n\n    \t// Pull sponsor tokens from sender\n        transferFrom(msg.sender, address(this), amount);\n\n        // Calculate equivalent amount of USDC and send to original sender\n        uint256 toSendUSDC = amount * sponsorTokenToUSDC();\n        contractUSDC.transfer(msg.sender, toSendUSDC);\n\n        contractBalanceUSDC -= toSendUSDC;\n    }\n\n    function sponsorTokenToUSDC() public view returns (uint256) {\n    \treturn totalLoanPayment / totalSupply();\n    }\n\n    function checkUSDCAccounting() private returns (bool) {\n    \tuint256 totalInternalUSDC = 0;\n    \tuint i;\n    \tfor(i = 0; i < lenders.length; i++){\n    \t\ttotalInternalUSDC += contributedUSDC[lenders[i]];\n    \t}\n    \treturn ((totalInternalUSDC == contractBalanceUSDC) && (contractBalanceUSDC >= contractUSDC.balanceOf(address(this))));\n    }\n\n    function calcLoanInterest() private view returns (uint256) {\n        uint timeElapsedSeconds = now - openLoanStartTime;\n        // Number of years calculated as timeElapsed in seconds / 1 years worth of seconds (31622400)\n        return fundraiseAmount * (1 + (interestRate / 10000)) ** (timeElapsedSeconds / 31622400);\n    }\n\n    function calcLoanRepayment() private view returns (uint256) {\n    \treturn startLoanBalanceUSDC + calcLoanInterest();\n    }\n\n}",
  "sourcePath": "/home/h0bbes/Documents/ethdenver/ETHDenver2020/contracts/contracts/sponsorToken.sol",
  "compiler": {
    "name": "solc",
    "version": "0.5.16+commit.9c3226ce.Emscripten.clang"
  },
  "schemaVersion": "3.0.23",
  "updatedAt": "2020-02-15T22:10:59.118Z",
  "devdoc": {
    "methods": {
      "allowance(address,address)": {
        "details": "See {IERC20-allowance}."
      },
      "approve(address,uint256)": {
        "details": "See {IERC20-approve}.     * Requirements:     * - `spender` cannot be the zero address."
      },
      "balanceOf(address)": {
        "details": "See {IERC20-balanceOf}."
      },
      "decimals()": {
        "details": "Returns the number of decimals used to get its user representation. For example, if `decimals` equals `2`, a balance of `505` tokens should be displayed to a user as `5,05` (`505 / 10 ** 2`).     * Tokens usually opt for a value of 18, imitating the relationship between Ether and Wei.     * NOTE: This information is only used for _display_ purposes: it in no way affects any of the arithmetic of the contract, including {IERC20-balanceOf} and {IERC20-transfer}."
      },
      "decreaseAllowance(address,uint256)": {
        "details": "Atomically decreases the allowance granted to `spender` by the caller.     * This is an alternative to {approve} that can be used as a mitigation for problems described in {IERC20-approve}.     * Emits an {Approval} event indicating the updated allowance.     * Requirements:     * - `spender` cannot be the zero address. - `spender` must have allowance for the caller of at least `subtractedValue`."
      },
      "increaseAllowance(address,uint256)": {
        "details": "Atomically increases the allowance granted to `spender` by the caller.     * This is an alternative to {approve} that can be used as a mitigation for problems described in {IERC20-approve}.     * Emits an {Approval} event indicating the updated allowance.     * Requirements:     * - `spender` cannot be the zero address."
      },
      "mint(address,uint256)": {
        "details": "See {ERC20-_mint}.     * Requirements:     * - the caller must have the {MinterRole}."
      },
      "name()": {
        "details": "Returns the name of the token."
      },
      "symbol()": {
        "details": "Returns the symbol of the token, usually a shorter version of the name."
      },
      "totalSupply()": {
        "details": "See {IERC20-totalSupply}."
      },
      "transfer(address,uint256)": {
        "details": "See {IERC20-transfer}.     * Requirements:     * - `recipient` cannot be the zero address. - the caller must have a balance of at least `amount`."
      },
      "transferFrom(address,address,uint256)": {
        "details": "See {IERC20-transferFrom}.     * Emits an {Approval} event indicating the updated allowance. This is not required by the EIP. See the note at the beginning of {ERC20};     * Requirements: - `sender` and `recipient` cannot be the zero address. - `sender` must have a balance of at least `amount`. - the caller must have allowance for `sender`'s tokens of at least `amount`."
      }
    }
  },
  "userdoc": {
    "methods": {
      "contribute(uint256)": {
        "notice": "*************************///  Token Moving Methods   /// *************************///"
      },
      "getFundraiseAmount()": {
        "notice": "*******************///  Getter methods   /// *******************///"
      }
    }
  }
}