{
  "contractName": "SponsorToken",
  "abi": [
    {
      "inputs": [
        {
          "internalType": "string",
          "name": "_name",
          "type": "string"
        },
        {
          "internalType": "string",
          "name": "_symbol",
          "type": "string"
        },
        {
          "internalType": "uint8",
          "name": "_decimals",
          "type": "uint8"
        },
        {
          "internalType": "uint256",
          "name": "_fundraiseAmount",
          "type": "uint256"
        },
        {
          "internalType": "uint8",
          "name": "_interestRate",
          "type": "uint8"
        },
        {
          "internalType": "uint256",
          "name": "_fundraiseLength",
          "type": "uint256"
        },
        {
          "internalType": "string",
          "name": "_description",
          "type": "string"
        },
        {
          "internalType": "address",
          "name": "_addressUSDC",
          "type": "address"
        },
        {
          "internalType": "address",
          "name": "_recipient",
          "type": "address"
        }
      ],
      "payable": false,
      "stateMutability": "nonpayable",
      "type": "constructor"
    },
    {
      "anonymous": false,
      "inputs": [
        {
          "indexed": true,
          "internalType": "address",
          "name": "owner",
          "type": "address"
        },
        {
          "indexed": true,
          "internalType": "address",
          "name": "spender",
          "type": "address"
        },
        {
          "indexed": false,
          "internalType": "uint256",
          "name": "value",
          "type": "uint256"
        }
      ],
      "name": "Approval",
      "type": "event"
    },
    {
      "anonymous": false,
      "inputs": [
        {
          "indexed": true,
          "internalType": "address",
          "name": "account",
          "type": "address"
        }
      ],
      "name": "MinterAdded",
      "type": "event"
    },
    {
      "anonymous": false,
      "inputs": [
        {
          "indexed": true,
          "internalType": "address",
          "name": "account",
          "type": "address"
        }
      ],
      "name": "MinterRemoved",
      "type": "event"
    },
    {
      "anonymous": false,
      "inputs": [
        {
          "indexed": true,
          "internalType": "address",
          "name": "from",
          "type": "address"
        },
        {
          "indexed": true,
          "internalType": "address",
          "name": "to",
          "type": "address"
        },
        {
          "indexed": false,
          "internalType": "uint256",
          "name": "value",
          "type": "uint256"
        }
      ],
      "name": "Transfer",
      "type": "event"
    },
    {
      "constant": false,
      "inputs": [
        {
          "internalType": "address",
          "name": "account",
          "type": "address"
        }
      ],
      "name": "addMinter",
      "outputs": [],
      "payable": false,
      "stateMutability": "nonpayable",
      "type": "function"
    },
    {
      "constant": true,
      "inputs": [
        {
          "internalType": "address",
          "name": "owner",
          "type": "address"
        },
        {
          "internalType": "address",
          "name": "spender",
          "type": "address"
        }
      ],
      "name": "allowance",
      "outputs": [
        {
          "internalType": "uint256",
          "name": "",
          "type": "uint256"
        }
      ],
      "payable": false,
      "stateMutability": "view",
      "type": "function"
    },
    {
      "constant": false,
      "inputs": [
        {
          "internalType": "address",
          "name": "spender",
          "type": "address"
        },
        {
          "internalType": "uint256",
          "name": "amount",
          "type": "uint256"
        }
      ],
      "name": "approve",
      "outputs": [
        {
          "internalType": "bool",
          "name": "",
          "type": "bool"
        }
      ],
      "payable": false,
      "stateMutability": "nonpayable",
      "type": "function"
    },
    {
      "constant": true,
      "inputs": [
        {
          "internalType": "address",
          "name": "account",
          "type": "address"
        }
      ],
      "name": "balanceOf",
      "outputs": [
        {
          "internalType": "uint256",
          "name": "",
          "type": "uint256"
        }
      ],
      "payable": false,
      "stateMutability": "view",
      "type": "function"
    },
    {
      "constant": true,
      "inputs": [],
      "name": "decimals",
      "outputs": [
        {
          "internalType": "uint8",
          "name": "",
          "type": "uint8"
        }
      ],
      "payable": false,
      "stateMutability": "view",
      "type": "function"
    },
    {
      "constant": false,
      "inputs": [
        {
          "internalType": "address",
          "name": "spender",
          "type": "address"
        },
        {
          "internalType": "uint256",
          "name": "subtractedValue",
          "type": "uint256"
        }
      ],
      "name": "decreaseAllowance",
      "outputs": [
        {
          "internalType": "bool",
          "name": "",
          "type": "bool"
        }
      ],
      "payable": false,
      "stateMutability": "nonpayable",
      "type": "function"
    },
    {
      "constant": false,
      "inputs": [
        {
          "internalType": "address",
          "name": "spender",
          "type": "address"
        },
        {
          "internalType": "uint256",
          "name": "addedValue",
          "type": "uint256"
        }
      ],
      "name": "increaseAllowance",
      "outputs": [
        {
          "internalType": "bool",
          "name": "",
          "type": "bool"
        }
      ],
      "payable": false,
      "stateMutability": "nonpayable",
      "type": "function"
    },
    {
      "constant": true,
      "inputs": [
        {
          "internalType": "address",
          "name": "account",
          "type": "address"
        }
      ],
      "name": "isMinter",
      "outputs": [
        {
          "internalType": "bool",
          "name": "",
          "type": "bool"
        }
      ],
      "payable": false,
      "stateMutability": "view",
      "type": "function"
    },
    {
      "constant": false,
      "inputs": [
        {
          "internalType": "address",
          "name": "account",
          "type": "address"
        },
        {
          "internalType": "uint256",
          "name": "amount",
          "type": "uint256"
        }
      ],
      "name": "mint",
      "outputs": [
        {
          "internalType": "bool",
          "name": "",
          "type": "bool"
        }
      ],
      "payable": false,
      "stateMutability": "nonpayable",
      "type": "function"
    },
    {
      "constant": true,
      "inputs": [],
      "name": "name",
      "outputs": [
        {
          "internalType": "string",
          "name": "",
          "type": "string"
        }
      ],
      "payable": false,
      "stateMutability": "view",
      "type": "function"
    },
    {
      "constant": false,
      "inputs": [],
      "name": "renounceMinter",
      "outputs": [],
      "payable": false,
      "stateMutability": "nonpayable",
      "type": "function"
    },
    {
      "constant": true,
      "inputs": [],
      "name": "symbol",
      "outputs": [
        {
          "internalType": "string",
          "name": "",
          "type": "string"
        }
      ],
      "payable": false,
      "stateMutability": "view",
      "type": "function"
    },
    {
      "constant": true,
      "inputs": [],
      "name": "totalSupply",
      "outputs": [
        {
          "internalType": "uint256",
          "name": "",
          "type": "uint256"
        }
      ],
      "payable": false,
      "stateMutability": "view",
      "type": "function"
    },
    {
      "constant": false,
      "inputs": [
        {
          "internalType": "address",
          "name": "recipient",
          "type": "address"
        },
        {
          "internalType": "uint256",
          "name": "amount",
          "type": "uint256"
        }
      ],
      "name": "transfer",
      "outputs": [
        {
          "internalType": "bool",
          "name": "",
          "type": "bool"
        }
      ],
      "payable": false,
      "stateMutability": "nonpayable",
      "type": "function"
    },
    {
      "constant": false,
      "inputs": [
        {
          "internalType": "address",
          "name": "sender",
          "type": "address"
        },
        {
          "internalType": "address",
          "name": "recipient",
          "type": "address"
        },
        {
          "internalType": "uint256",
          "name": "amount",
          "type": "uint256"
        }
      ],
      "name": "transferFrom",
      "outputs": [
        {
          "internalType": "bool",
          "name": "",
          "type": "bool"
        }
      ],
      "payable": false,
      "stateMutability": "nonpayable",
      "type": "function"
    },
    {
      "constant": true,
      "inputs": [],
      "name": "getFundraiseAmount",
      "outputs": [
        {
          "internalType": "uint256",
          "name": "",
          "type": "uint256"
        }
      ],
      "payable": false,
      "stateMutability": "view",
      "type": "function"
    },
    {
      "constant": true,
      "inputs": [],
      "name": "getFundraiseLength",
      "outputs": [
        {
          "internalType": "uint256",
          "name": "",
          "type": "uint256"
        }
      ],
      "payable": false,
      "stateMutability": "view",
      "type": "function"
    },
    {
      "constant": true,
      "inputs": [],
      "name": "getInterestRate",
      "outputs": [
        {
          "internalType": "uint256",
          "name": "",
          "type": "uint256"
        }
      ],
      "payable": false,
      "stateMutability": "view",
      "type": "function"
    },
    {
      "constant": true,
      "inputs": [],
      "name": "getDescription",
      "outputs": [
        {
          "internalType": "string",
          "name": "",
          "type": "string"
        }
      ],
      "payable": false,
      "stateMutability": "view",
      "type": "function"
    },
    {
      "constant": false,
      "inputs": [],
      "name": "changeState",
      "outputs": [
        {
          "internalType": "bool",
          "name": "",
          "type": "bool"
        }
      ],
      "payable": false,
      "stateMutability": "nonpayable",
      "type": "function"
    },
    {
      "constant": false,
      "inputs": [
        {
          "internalType": "uint256",
          "name": "amount",
          "type": "uint256"
        }
      ],
      "name": "contribute",
      "outputs": [
        {
          "internalType": "bool",
          "name": "",
          "type": "bool"
        }
      ],
      "payable": false,
      "stateMutability": "nonpayable",
      "type": "function"
    }
  ],
  "bytecode": "0x60806040523480156200001157600080fd5b5060405162002fe738038062002fe783398181016040526101208110156200003857600080fd5b81019080805160405193929190846401000000008211156200005957600080fd5b838201915060208201858111156200007057600080fd5b82518660018202830111640100000000821117156200008e57600080fd5b8083526020830192505050908051906020019080838360005b83811015620000c4578082015181840152602081019050620000a7565b50505050905090810190601f168015620000f25780820380516001836020036101000a031916815260200191505b50604052602001805160405193929190846401000000008211156200011657600080fd5b838201915060208201858111156200012d57600080fd5b82518660018202830111640100000000821117156200014b57600080fd5b8083526020830192505050908051906020019080838360005b838110156200018157808201518184015260208101905062000164565b50505050905090810190601f168015620001af5780820380516001836020036101000a031916815260200191505b506040526020018051906020019092919080519060200190929190805190602001909291908051906020019092919080516040519392919084640100000000821115620001fb57600080fd5b838201915060208201858111156200021257600080fd5b82518660018202830111640100000000821117156200023057600080fd5b8083526020830192505050908051906020019080838360005b838110156200026657808201518184015260208101905062000249565b50505050905090810190601f168015620002945780820380516001836020036101000a031916815260200191505b506040526020018051906020019092919080519060200190929190505050888888620002d5620002c96200043960201b60201c565b6200044160201b60201c565b8260049080519060200190620002ed92919062000666565b5081600590805190602001906200030692919062000666565b5080600660006101000a81548160ff021916908360ff16021790555050505082600d90805190602001906200033d92919062000666565b508560078190555084600860006101000a81548160ff021916908360ff16021790555081600f60006101000a81548173ffffffffffffffffffffffffffffffffffffffff021916908373ffffffffffffffffffffffffffffffffffffffff1602179055504260098190555083600b81905550600b5460095401600a8190555080600e60006101000a81548173ffffffffffffffffffffffffffffffffffffffff021916908373ffffffffffffffffffffffffffffffffffffffff1602179055506000600f60146101000a81548160ff021916908360038111156200041d57fe5b0217905550600060108190555050505050505050505062000715565b600033905090565b6200045c816003620004a260201b620025571790919060201c565b8073ffffffffffffffffffffffffffffffffffffffff167f6ae172837ea30b801fbfcdd4108aa1d5bf8ff775444fd70256b44e6bf3dfc3f660405160405180910390a250565b620004b482826200058660201b60201c565b1562000528576040517f08c379a000000000000000000000000000000000000000000000000000000000815260040180806020018281038252601f8152602001807f526f6c65733a206163636f756e7420616c72656164792068617320726f6c650081525060200191505060405180910390fd5b60018260000160008373ffffffffffffffffffffffffffffffffffffffff1673ffffffffffffffffffffffffffffffffffffffff16815260200190815260200160002060006101000a81548160ff0219169083151502179055505050565b60008073ffffffffffffffffffffffffffffffffffffffff168273ffffffffffffffffffffffffffffffffffffffff1614156200060f576040517f08c379a000000000000000000000000000000000000000000000000000000000815260040180806020018281038252602281526020018062002fc56022913960400191505060405180910390fd5b8260000160008373ffffffffffffffffffffffffffffffffffffffff1673ffffffffffffffffffffffffffffffffffffffff16815260200190815260200160002060009054906101000a900460ff16905092915050565b828054600181600116156101000203166002900490600052602060002090601f016020900481019282601f10620006a957805160ff1916838001178555620006da565b82800160010185558215620006da579182015b82811115620006d9578251825591602001919060010190620006bc565b5b509050620006e99190620006ed565b5090565b6200071291905b808211156200070e576000816000905550600101620006f4565b5090565b90565b6128a080620007256000396000f3fe608060405234801561001057600080fd5b50600436106101375760003560e01c80638412e667116100b8578063a457c2d71161007c578063a457c2d7146105c3578063a9059cbb14610629578063aa271e1a1461068f578063c1cbbca7146106eb578063dd62ed3e14610731578063eef656b8146107a957610137565b80638412e667146104b25780638c1a3b63146104d457806395d89b41146104f2578063983b2d561461057557806398650275146105b957610137565b8063313ce567116100ff578063313ce5671461034c578063395093511461037057806340c10f19146103d65780635257b5661461043c57806370a082311461045a57610137565b806306fdde031461013c578063095ea7b3146101bf57806318160ddd146102255780631a0925411461024357806323b872dd146102c6575b600080fd5b6101446107c7565b6040518080602001828103825283818151815260200191508051906020019080838360005b83811015610184578082015181840152602081019050610169565b50505050905090810190601f1680156101b15780820380516001836020036101000a031916815260200191505b509250505060405180910390f35b61020b600480360360408110156101d557600080fd5b81019080803573ffffffffffffffffffffffffffffffffffffffff16906020019092919080359060200190929190505050610869565b604051808215151515815260200191505060405180910390f35b61022d610887565b6040518082815260200191505060405180910390f35b61024b610891565b6040518080602001828103825283818151815260200191508051906020019080838360005b8381101561028b578082015181840152602081019050610270565b50505050905090810190601f1680156102b85780820380516001836020036101000a031916815260200191505b509250505060405180910390f35b610332600480360360608110156102dc57600080fd5b81019080803573ffffffffffffffffffffffffffffffffffffffff169060200190929190803573ffffffffffffffffffffffffffffffffffffffff16906020019092919080359060200190929190505050610933565b604051808215151515815260200191505060405180910390f35b610354610a0c565b604051808260ff1660ff16815260200191505060405180910390f35b6103bc6004803603604081101561038657600080fd5b81019080803573ffffffffffffffffffffffffffffffffffffffff16906020019092919080359060200190929190505050610a23565b604051808215151515815260200191505060405180910390f35b610422600480360360408110156103ec57600080fd5b81019080803573ffffffffffffffffffffffffffffffffffffffff16906020019092919080359060200190929190505050610ad6565b604051808215151515815260200191505060405180910390f35b610444610b51565b6040518082815260200191505060405180910390f35b61049c6004803603602081101561047057600080fd5b81019080803573ffffffffffffffffffffffffffffffffffffffff169060200190929190505050610b6b565b6040518082815260200191505060405180910390f35b6104ba610bb3565b604051808215151515815260200191505060405180910390f35b6104dc610e3a565b6040518082815260200191505060405180910390f35b6104fa610e44565b6040518080602001828103825283818151815260200191508051906020019080838360005b8381101561053a57808201518184015260208101905061051f565b50505050905090810190601f1680156105675780820380516001836020036101000a031916815260200191505b509250505060405180910390f35b6105b76004803603602081101561058b57600080fd5b81019080803573ffffffffffffffffffffffffffffffffffffffff169060200190929190505050610ee6565b005b6105c1610f57565b005b61060f600480360360408110156105d957600080fd5b81019080803573ffffffffffffffffffffffffffffffffffffffff16906020019092919080359060200190929190505050610f69565b604051808215151515815260200191505060405180910390f35b6106756004803603604081101561063f57600080fd5b81019080803573ffffffffffffffffffffffffffffffffffffffff16906020019092919080359060200190929190505050611036565b604051808215151515815260200191505060405180910390f35b6106d1600480360360208110156106a557600080fd5b81019080803573ffffffffffffffffffffffffffffffffffffffff169060200190929190505050611054565b604051808215151515815260200191505060405180910390f35b6107176004803603602081101561070157600080fd5b8101908080359060200190929190505050611071565b604051808215151515815260200191505060405180910390f35b6107936004803603604081101561074757600080fd5b81019080803573ffffffffffffffffffffffffffffffffffffffff169060200190929190803573ffffffffffffffffffffffffffffffffffffffff169060200190929190505050611341565b6040518082815260200191505060405180910390f35b6107b16113c8565b6040518082815260200191505060405180910390f35b606060048054600181600116156101000203166002900480601f01602080910402602001604051908101604052809291908181526020018280546001816001161561010002031660029004801561085f5780601f106108345761010080835404028352916020019161085f565b820191906000526020600020905b81548152906001019060200180831161084257829003601f168201915b5050505050905090565b600061087d6108766113d2565b84846113da565b6001905092915050565b6000600254905090565b6060600d8054600181600116156101000203166002900480601f0160208091040260200160405190810160405280929190818152602001828054600181600116156101000203166002900480156109295780601f106108fe57610100808354040283529160200191610929565b820191906000526020600020905b81548152906001019060200180831161090c57829003601f168201915b5050505050905090565b60006109408484846115d1565b610a018461094c6113d2565b6109fc856040518060600160405280602881526020016127b460289139600160008b73ffffffffffffffffffffffffffffffffffffffff1673ffffffffffffffffffffffffffffffffffffffff16815260200190815260200160002060006109b26113d2565b73ffffffffffffffffffffffffffffffffffffffff1673ffffffffffffffffffffffffffffffffffffffff168152602001908152602001600020546118879092919063ffffffff16565b6113da565b600190509392505050565b6000600660009054906101000a900460ff16905090565b6000610acc610a306113d2565b84610ac78560016000610a416113d2565b73ffffffffffffffffffffffffffffffffffffffff1673ffffffffffffffffffffffffffffffffffffffff16815260200190815260200160002060008973ffffffffffffffffffffffffffffffffffffffff1673ffffffffffffffffffffffffffffffffffffffff1681526020019081526020016000205461194790919063ffffffff16565b6113da565b6001905092915050565b6000610ae8610ae36113d2565b611054565b610b3d576040517f08c379a00000000000000000000000000000000000000000000000000000000081526004018080602001828103825260308152602001806127636030913960400191505060405180910390fd5b610b4783836119cf565b6001905092915050565b6000600860009054906101000a900460ff1660ff16905090565b60008060008373ffffffffffffffffffffffffffffffffffffffff1673ffffffffffffffffffffffffffffffffffffffff168152602001908152602001600020549050919050565b6000806003811115610bc157fe5b600f60149054906101000a900460ff166003811115610bdc57fe5b1415610d4d57610bea611b8a565b15610d0657600f60009054906101000a900473ffffffffffffffffffffffffffffffffffffffff1673ffffffffffffffffffffffffffffffffffffffff166370a08231306040518263ffffffff1660e01b8152600401808273ffffffffffffffffffffffffffffffffffffffff1673ffffffffffffffffffffffffffffffffffffffff168152602001915050602060405180830381600087803b158015610c9057600080fd5b505af1158015610ca4573d6000803e3d6000fd5b505050506040513d6020811015610cba57600080fd5b8101908080519060200190929190505050601081905550610cd9611c72565b6001600f60146101000a81548160ff02191690836003811115610cf857fe5b021790555060019050610e37565b610d0e611f55565b15610d4857610d1b611f62565b6003600f60146101000a81548160ff02191690836003811115610d3a57fe5b021790555060019050610e37565b610e32565b60016003811115610d5a57fe5b600f60149054906101000a900460ff166003811115610d7557fe5b1415610dba57610d83612125565b15610db5576002600f60146101000a81548160ff02191690836003811115610da757fe5b021790555060019050610e37565b610e31565b60026003811115610dc757fe5b600f60149054906101000a900460ff166003811115610de257fe5b1415610e2757610df0612212565b15610e22576003600f60146101000a81548160ff02191690836003811115610e1457fe5b021790555060019050610e37565b610e30565b60009050610e37565b5b5b600090505b90565b6000600b54905090565b606060058054600181600116156101000203166002900480601f016020809104026020016040519081016040528092919081815260200182805460018160011615610100020316600290048015610edc5780601f10610eb157610100808354040283529160200191610edc565b820191906000526020600020905b815481529060010190602001808311610ebf57829003601f168201915b5050505050905090565b610ef6610ef16113d2565b611054565b610f4b576040517f08c379a00000000000000000000000000000000000000000000000000000000081526004018080602001828103825260308152602001806127636030913960400191505060405180910390fd5b610f548161222b565b50565b610f67610f626113d2565b612285565b565b600061102c610f766113d2565b84611027856040518060600160405280602581526020016128476025913960016000610fa06113d2565b73ffffffffffffffffffffffffffffffffffffffff1673ffffffffffffffffffffffffffffffffffffffff16815260200190815260200160002060008a73ffffffffffffffffffffffffffffffffffffffff1673ffffffffffffffffffffffffffffffffffffffff168152602001908152602001600020546118879092919063ffffffff16565b6113da565b6001905092915050565b600061104a6110436113d2565b84846115d1565b6001905092915050565b600061106a8260036122df90919063ffffffff16565b9050919050565b600080600381111561107f57fe5b600f60149054906101000a900460ff16600381111561109a57fe5b146110a457600080fd5b600754600f60009054906101000a900473ffffffffffffffffffffffffffffffffffffffff1673ffffffffffffffffffffffffffffffffffffffff166370a08231306040518263ffffffff1660e01b8152600401808273ffffffffffffffffffffffffffffffffffffffff1673ffffffffffffffffffffffffffffffffffffffff168152602001915050602060405180830381600087803b15801561114857600080fd5b505af115801561115c573d6000803e3d6000fd5b505050506040513d602081101561117257600080fd5b81019080805190602001909291905050508301111561119057600080fd5b600f60009054906101000a900473ffffffffffffffffffffffffffffffffffffffff1673ffffffffffffffffffffffffffffffffffffffff166323b872dd3330856040518463ffffffff1660e01b8152600401808473ffffffffffffffffffffffffffffffffffffffff1673ffffffffffffffffffffffffffffffffffffffff1681526020018373ffffffffffffffffffffffffffffffffffffffff1673ffffffffffffffffffffffffffffffffffffffff1681526020018281526020019350505050600060405180830381600087803b15801561126d57600080fd5b505af1158015611281573d6000803e3d6000fd5b5050505060123390806001815401808255809150509060018203906000526020600020016000909192909190916101000a81548173ffffffffffffffffffffffffffffffffffffffff021916908373ffffffffffffffffffffffffffffffffffffffff1602179055505081601160003373ffffffffffffffffffffffffffffffffffffffff1673ffffffffffffffffffffffffffffffffffffffff1681526020019081526020016000206000828254019250508190555060019050919050565b6000600160008473ffffffffffffffffffffffffffffffffffffffff1673ffffffffffffffffffffffffffffffffffffffff16815260200190815260200160002060008373ffffffffffffffffffffffffffffffffffffffff1673ffffffffffffffffffffffffffffffffffffffff16815260200190815260200160002054905092915050565b6000600754905090565b600033905090565b600073ffffffffffffffffffffffffffffffffffffffff168373ffffffffffffffffffffffffffffffffffffffff161415611460576040517f08c379a00000000000000000000000000000000000000000000000000000000081526004018080602001828103825260248152602001806128236024913960400191505060405180910390fd5b600073ffffffffffffffffffffffffffffffffffffffff168273ffffffffffffffffffffffffffffffffffffffff1614156114e6576040517f08c379a000000000000000000000000000000000000000000000000000000000815260040180806020018281038252602281526020018061271b6022913960400191505060405180910390fd5b80600160008573ffffffffffffffffffffffffffffffffffffffff1673ffffffffffffffffffffffffffffffffffffffff16815260200190815260200160002060008473ffffffffffffffffffffffffffffffffffffffff1673ffffffffffffffffffffffffffffffffffffffff168152602001908152602001600020819055508173ffffffffffffffffffffffffffffffffffffffff168373ffffffffffffffffffffffffffffffffffffffff167f8c5be1e5ebec7d5bd14f71427d1e84f3dd0314c0f7b2291e5b200ac8c7c3b925836040518082815260200191505060405180910390a3505050565b600073ffffffffffffffffffffffffffffffffffffffff168373ffffffffffffffffffffffffffffffffffffffff161415611657576040517f08c379a00000000000000000000000000000000000000000000000000000000081526004018080602001828103825260258152602001806127fe6025913960400191505060405180910390fd5b600073ffffffffffffffffffffffffffffffffffffffff168273ffffffffffffffffffffffffffffffffffffffff1614156116dd576040517f08c379a00000000000000000000000000000000000000000000000000000000081526004018080602001828103825260238152602001806126f86023913960400191505060405180910390fd5b6117488160405180606001604052806026815260200161273d602691396000808773ffffffffffffffffffffffffffffffffffffffff1673ffffffffffffffffffffffffffffffffffffffff168152602001908152602001600020546118879092919063ffffffff16565b6000808573ffffffffffffffffffffffffffffffffffffffff1673ffffffffffffffffffffffffffffffffffffffff168152602001908152602001600020819055506117db816000808573ffffffffffffffffffffffffffffffffffffffff1673ffffffffffffffffffffffffffffffffffffffff1681526020019081526020016000205461194790919063ffffffff16565b6000808473ffffffffffffffffffffffffffffffffffffffff1673ffffffffffffffffffffffffffffffffffffffff168152602001908152602001600020819055508173ffffffffffffffffffffffffffffffffffffffff168373ffffffffffffffffffffffffffffffffffffffff167fddf252ad1be2c89b69c2b068fc378daa952ba7f163c4a11628f55a4df523b3ef836040518082815260200191505060405180910390a3505050565b6000838311158290611934576040517f08c379a00000000000000000000000000000000000000000000000000000000081526004018080602001828103825283818151815260200191508051906020019080838360005b838110156118f95780820151818401526020810190506118de565b50505050905090810190601f1680156119265780820380516001836020036101000a031916815260200191505b509250505060405180910390fd5b5060008385039050809150509392505050565b6000808284019050838110156119c5576040517f08c379a000000000000000000000000000000000000000000000000000000000815260040180806020018281038252601b8152602001807f536166654d6174683a206164646974696f6e206f766572666c6f77000000000081525060200191505060405180910390fd5b8091505092915050565b600073ffffffffffffffffffffffffffffffffffffffff168273ffffffffffffffffffffffffffffffffffffffff161415611a72576040517f08c379a000000000000000000000000000000000000000000000000000000000815260040180806020018281038252601f8152602001807f45524332303a206d696e7420746f20746865207a65726f20616464726573730081525060200191505060405180910390fd5b611a878160025461194790919063ffffffff16565b600281905550611ade816000808573ffffffffffffffffffffffffffffffffffffffff1673ffffffffffffffffffffffffffffffffffffffff1681526020019081526020016000205461194790919063ffffffff16565b6000808473ffffffffffffffffffffffffffffffffffffffff1673ffffffffffffffffffffffffffffffffffffffff168152602001908152602001600020819055508173ffffffffffffffffffffffffffffffffffffffff16600073ffffffffffffffffffffffffffffffffffffffff167fddf252ad1be2c89b69c2b068fc378daa952ba7f163c4a11628f55a4df523b3ef836040518082815260200191505060405180910390a35050565b6000600754600f60009054906101000a900473ffffffffffffffffffffffffffffffffffffffff1673ffffffffffffffffffffffffffffffffffffffff166370a08231306040518263ffffffff1660e01b8152600401808273ffffffffffffffffffffffffffffffffffffffff1673ffffffffffffffffffffffffffffffffffffffff168152602001915050602060405180830381600087803b158015611c3057600080fd5b505af1158015611c44573d6000803e3d6000fd5b505050506040513d6020811015611c5a57600080fd5b81019080805190602001909291905050501015905090565b60006003811115611c7f57fe5b600f60149054906101000a900460ff166003811115611c9a57fe5b14611ca457600080fd5b611cac6123bd565b611cb557600080fd5b60008090505b601280549050811015611d8d57611d7f60128281548110611cd857fe5b9060005260206000200160009054906101000a900473ffffffffffffffffffffffffffffffffffffffff166011600060128581548110611d1457fe5b9060005260206000200160009054906101000a900473ffffffffffffffffffffffffffffffffffffffff1673ffffffffffffffffffffffffffffffffffffffff1673ffffffffffffffffffffffffffffffffffffffff16815260200190815260200160002054610ad6565b508080600101915050611cbb565b600f60009054906101000a900473ffffffffffffffffffffffffffffffffffffffff1673ffffffffffffffffffffffffffffffffffffffff1663a9059cbb600e60009054906101000a900473ffffffffffffffffffffffffffffffffffffffff16600f60009054906101000a900473ffffffffffffffffffffffffffffffffffffffff1673ffffffffffffffffffffffffffffffffffffffff166370a08231306040518263ffffffff1660e01b8152600401808273ffffffffffffffffffffffffffffffffffffffff1673ffffffffffffffffffffffffffffffffffffffff168152602001915050602060405180830381600087803b158015611e8f57600080fd5b505af1158015611ea3573d6000803e3d6000fd5b505050506040513d6020811015611eb957600080fd5b81019080805190602001909291905050506040518363ffffffff1660e01b8152600401808373ffffffffffffffffffffffffffffffffffffffff1673ffffffffffffffffffffffffffffffffffffffff16815260200182815260200192505050600060405180830381600087803b158015611f3357600080fd5b505af1158015611f47573d6000803e3d6000fd5b5050505042600c8190555050565b6000600a54421015905090565b60006003811115611f6f57fe5b600f60149054906101000a900460ff166003811115611f8a57fe5b14611f9457600080fd5b60008090505b60128054905081101561212257600f60009054906101000a900473ffffffffffffffffffffffffffffffffffffffff1673ffffffffffffffffffffffffffffffffffffffff1663a9059cbb60128381548110611ff257fe5b9060005260206000200160009054906101000a900473ffffffffffffffffffffffffffffffffffffffff16601160006012868154811061202e57fe5b9060005260206000200160009054906101000a900473ffffffffffffffffffffffffffffffffffffffff1673ffffffffffffffffffffffffffffffffffffffff1673ffffffffffffffffffffffffffffffffffffffff168152602001908152602001600020546040518363ffffffff1660e01b8152600401808373ffffffffffffffffffffffffffffffffffffffff1673ffffffffffffffffffffffffffffffffffffffff16815260200182815260200192505050600060405180830381600087803b1580156120fd57600080fd5b505af1158015612111573d6000803e3d6000fd5b505050508080600101915050611f9a565b50565b600061212f612544565b600f60009054906101000a900473ffffffffffffffffffffffffffffffffffffffff1673ffffffffffffffffffffffffffffffffffffffff166370a08231306040518263ffffffff1660e01b8152600401808273ffffffffffffffffffffffffffffffffffffffff1673ffffffffffffffffffffffffffffffffffffffff168152602001915050602060405180830381600087803b1580156121d057600080fd5b505af11580156121e4573d6000803e3d6000fd5b505050506040513d60208110156121fa57600080fd5b81019080805190602001909291905050501015905090565b600061221c610887565b61222530610b6b565b14905090565b61223f81600361255790919063ffffffff16565b8073ffffffffffffffffffffffffffffffffffffffff167f6ae172837ea30b801fbfcdd4108aa1d5bf8ff775444fd70256b44e6bf3dfc3f660405160405180910390a250565b61229981600361263290919063ffffffff16565b8073ffffffffffffffffffffffffffffffffffffffff167fe94479a9f7e1952cc78f2d6baab678adc1b772d936c6583def489e524cb6669260405160405180910390a250565b60008073ffffffffffffffffffffffffffffffffffffffff168273ffffffffffffffffffffffffffffffffffffffff161415612366576040517f08c379a00000000000000000000000000000000000000000000000000000000081526004018080602001828103825260228152602001806127dc6022913960400191505060405180910390fd5b8260000160008373ffffffffffffffffffffffffffffffffffffffff1673ffffffffffffffffffffffffffffffffffffffff16815260200190815260200160002060009054906101000a900460ff16905092915050565b6000806000905060008090505b60128054905081101561245f5760116000601283815481106123e857fe5b9060005260206000200160009054906101000a900473ffffffffffffffffffffffffffffffffffffffff1673ffffffffffffffffffffffffffffffffffffffff1673ffffffffffffffffffffffffffffffffffffffff168152602001908152602001600020548201915080806001019150506123ca565b600f60009054906101000a900473ffffffffffffffffffffffffffffffffffffffff1673ffffffffffffffffffffffffffffffffffffffff166370a08231306040518263ffffffff1660e01b8152600401808273ffffffffffffffffffffffffffffffffffffffff1673ffffffffffffffffffffffffffffffffffffffff168152602001915050602060405180830381600087803b15801561250057600080fd5b505af1158015612514573d6000803e3d6000fd5b505050506040513d602081101561252a57600080fd5b810190808051906020019092919050505082149250505090565b600061254e6126ef565b60105401905090565b61256182826122df565b156125d4576040517f08c379a000000000000000000000000000000000000000000000000000000000815260040180806020018281038252601f8152602001807f526f6c65733a206163636f756e7420616c72656164792068617320726f6c650081525060200191505060405180910390fd5b60018260000160008373ffffffffffffffffffffffffffffffffffffffff1673ffffffffffffffffffffffffffffffffffffffff16815260200190815260200160002060006101000a81548160ff0219169083151502179055505050565b61263c82826122df565b612691576040517f08c379a00000000000000000000000000000000000000000000000000000000081526004018080602001828103825260218152602001806127936021913960400191505060405180910390fd5b60008260000160008373ffffffffffffffffffffffffffffffffffffffff1673ffffffffffffffffffffffffffffffffffffffff16815260200190815260200160002060006101000a81548160ff0219169083151502179055505050565b60008090509056fe45524332303a207472616e7366657220746f20746865207a65726f206164647265737345524332303a20617070726f766520746f20746865207a65726f206164647265737345524332303a207472616e7366657220616d6f756e7420657863656564732062616c616e63654d696e746572526f6c653a2063616c6c657220646f6573206e6f74206861766520746865204d696e74657220726f6c65526f6c65733a206163636f756e7420646f6573206e6f74206861766520726f6c6545524332303a207472616e7366657220616d6f756e74206578636565647320616c6c6f77616e6365526f6c65733a206163636f756e7420697320746865207a65726f206164647265737345524332303a207472616e736665722066726f6d20746865207a65726f206164647265737345524332303a20617070726f76652066726f6d20746865207a65726f206164647265737345524332303a2064656372656173656420616c6c6f77616e63652062656c6f77207a65726fa265627a7a723158202a2375e690e03bcce1b3c8937dec388b2be1e357a50d80791ea92e091321220964736f6c634300050c0032526f6c65733a206163636f756e7420697320746865207a65726f2061646472657373",
  "source": "pragma solidity ^0.5.0;\n \nimport \"@openzeppelin/contracts/token/ERC20/ERC20.sol\";\nimport \"@openzeppelin/contracts/token/ERC20/ERC20Mintable.sol\";\nimport \"@openzeppelin/contracts/token/ERC20/ERC20Detailed.sol\";\n\n// For USDC Token contract\ncontract ERC20Token {\n  function transferFrom(address from, address to, uint value) public;\n  function transfer(address recipient, uint256 amount) public;\n  function balanceOf(address account) public returns (uint256);\n}\n \ncontract SponsorToken is ERC20, ERC20Mintable, ERC20Detailed{\n\t// Metadata about fundraise\n    uint256 private fundraiseAmount;\n   \tuint8 private interestRate;\n\n    uint256 private fundraiseStartTime;\n    uint256 private fundraiseEndTime;\n    uint256 private fundraiseLength;\n\n    uint256 private openLoanStartTime;\n\n   \tstring private description;\n   \taddress private recipient;\n\n    ERC20Token contractUSDC;\n\n\n   \t// Fundraise states\n   \tenum States { Fundraising, OpenLoan, ConvertLoan, ClosedLoan }\n\n   \t// Current state\n   \tStates currentState;\n   \tuint256 startLoanBalanceUSDC;\n   \tmapping (address => uint256) private contributedUSDC;\n   \taddress[] lenders;\n\n\n    constructor(\n    \tstring memory _name,\n    \tstring memory _symbol,\n    \tuint8 _decimals,\n    \tuint256 _fundraiseAmount,\n    \tuint8 _interestRate,\n    \tuint256 _fundraiseLength,\n    \tstring memory _description,\n    \taddress _addressUSDC,\n    \taddress _recipient\n    ) \n    \tERC20Detailed(\n    \t\t_name,\n    \t\t_symbol,\n    \t\t_decimals\n    \t) \n    \tpublic \n    { \n      // Set metadata\n      description = _description;\n      fundraiseAmount = _fundraiseAmount;\n      interestRate = _interestRate;\n      contractUSDC = ERC20Token(_addressUSDC);\n\n      // Start time of fundraiser is unix time of block\n      // End time is start + length of fundraise\n      fundraiseStartTime = now;\n      fundraiseLength = _fundraiseLength;\n      fundraiseEndTime = fundraiseStartTime + fundraiseLength;\n\n      // Address that creates contract is recipient\n      recipient = _recipient;\n\n      // Init state\n      currentState = States.Fundraising;\n      startLoanBalanceUSDC = 0;\n   \t}\n    \n    // Getter methods\n    function getFundraiseAmount() public view returns (uint256) {\n    \treturn fundraiseAmount;\n    }\n\n\tfunction getFundraiseLength() public view returns (uint256) {\n    \treturn fundraiseLength;\n    }\n\n\tfunction getInterestRate() public view returns (uint256) {\n    \treturn interestRate;\n    }\n\n    function getDescription() public view returns (string memory) {\n        return description;\n    }\n    \n    // Checks for state transitions\n    function enoughFundsRaised() private returns (bool) {\n        return (contractUSDC.balanceOf(address(this)) >= fundraiseAmount);\n    }\n\n    function isFundraiseOver() private view returns (bool) {\n        return (now >= fundraiseEndTime);\n    }\n    \n    function loanRepaid() private returns (bool) {\n        return (contractUSDC.balanceOf(address(this)) >= calcLoanRepayment());\n    }\n\n    function allSponsorTokensReturned() private returns (bool) {\n    \treturn (balanceOf(address(this)) == totalSupply());\n    }\n    \n    // Public function for anyone to update state based on contract funds\n    // Returns true of state changed, false if state remains the same\n    // Should we return the state?\n    function changeState() public returns (bool) {\n    \tif (currentState == States.Fundraising) {\n            if (enoughFundsRaised()) {\n            \tstartLoanBalanceUSDC = contractUSDC.balanceOf(address(this));\n            \tkickOffLoan();\n          \t    currentState = States.OpenLoan;\n\n          \t    return true;\n            }\n            if (isFundraiseOver()) {\n          \t    returnContributions();\n                currentState = States.ClosedLoan;\n\n                return true;\n            }\n    \t} else if (currentState == States.OpenLoan) {\n    \t\t// Check if enough USDC has been deposited into contract to begin converts\n    \t\tif (loanRepaid()) {\n    \t\t\tcurrentState = States.ConvertLoan;\n\n    \t\t\treturn true;\n    \t\t}\n    \t} else if (currentState == States.ConvertLoan) {\n    \t\t// Check if all the sponsor tokens have been returned to contract\n    \t\tif (allSponsorTokensReturned()) {\n    \t\t\tcurrentState = States.ClosedLoan;\n\n    \t\t\treturn true;\n    \t\t}\n    \t} else { \n    \t\t// state is closed, nothing actionable\n    \t\treturn false;\n    \t}\n\n    \treturn false;\n    }\n\n    // Function for a lender to contribute USDC to fundraiser\n    function contribute(uint256 amount) public returns (bool) {\n        require (currentState == States.Fundraising);\n        require (amount + contractUSDC.balanceOf(address(this)) <= fundraiseAmount);\n\n        // TransferFrom USDC amount into contract address\n        contractUSDC.transferFrom(msg.sender, address(this), amount);\n\n        lenders.push(msg.sender);\n        // Default value for mapping value uint is 0, so no need to check if value exists or not\n        contributedUSDC[msg.sender] += amount;\n\n        return true;\n    }\n\n    function kickOffLoan() private {\n    \trequire (currentState == States.Fundraising);\n        require (checkUSDCAccounting());\n\n        // Mint tokens to each lender equivalent to amount of USDC they put in\n      \tuint i;\n    \tfor(i = 0; i < lenders.length; i++){\n    \t\tmint(lenders[i], contributedUSDC[lenders[i]]);\n    \t}\n    \t// TODO: Turn off minting here\n\n    \t// Send USDC Loan to recipient\n    \tcontractUSDC.transfer(recipient, contractUSDC.balanceOf(address(this)));\n\n    \topenLoanStartTime = now;\n    }\n\n    function checkUSDCAccounting() private returns (bool) {\n    \tuint256 totalInternalUSDC = 0;\n    \tuint i;\n    \tfor(i = 0; i < lenders.length; i++){\n    \t\ttotalInternalUSDC += contributedUSDC[lenders[i]];\n    \t}\n    \treturn (totalInternalUSDC == contractUSDC.balanceOf(address(this)));\n    }\n\n    // TODO\n    function calcLoanInterest() private returns (uint256) {\n        return 0;\n    }\n\n    function calcLoanRepayment() private returns (uint256) {\n    \treturn startLoanBalanceUSDC + calcLoanInterest();\n    }\n    \n    // In case of failed fundraise return funds to lenders\n    function returnContributions() private {\n    \trequire (currentState == States.Fundraising);\n        uint i;\n    \tfor(i = 0; i < lenders.length; i++){\n    \t\tcontractUSDC.transfer(lenders[i], contributedUSDC[lenders[i]]);\n    \t}\n    }\n\n}",
  "sourcePath": "/Users/justsomeguy/Documents/ethDenver/ETHDenver2020/contracts/contracts/sponsorToken.sol",
  "compiler": {
    "name": "solc",
    "version": "0.5.12+commit.7709ece9.Emscripten.clang"
  },
  "schemaVersion": "3.0.20",
  "updatedAt": "2020-02-15T18:06:58.480Z",
  "devdoc": {
    "methods": {
      "allowance(address,address)": {
        "details": "See {IERC20-allowance}."
      },
      "approve(address,uint256)": {
        "details": "See {IERC20-approve}.     * Requirements:     * - `spender` cannot be the zero address."
      },
      "balanceOf(address)": {
        "details": "See {IERC20-balanceOf}."
      },
      "decimals()": {
        "details": "Returns the number of decimals used to get its user representation. For example, if `decimals` equals `2`, a balance of `505` tokens should be displayed to a user as `5,05` (`505 / 10 ** 2`).     * Tokens usually opt for a value of 18, imitating the relationship between Ether and Wei.     * NOTE: This information is only used for _display_ purposes: it in no way affects any of the arithmetic of the contract, including {IERC20-balanceOf} and {IERC20-transfer}."
      },
      "decreaseAllowance(address,uint256)": {
        "details": "Atomically decreases the allowance granted to `spender` by the caller.     * This is an alternative to {approve} that can be used as a mitigation for problems described in {IERC20-approve}.     * Emits an {Approval} event indicating the updated allowance.     * Requirements:     * - `spender` cannot be the zero address. - `spender` must have allowance for the caller of at least `subtractedValue`."
      },
      "increaseAllowance(address,uint256)": {
        "details": "Atomically increases the allowance granted to `spender` by the caller.     * This is an alternative to {approve} that can be used as a mitigation for problems described in {IERC20-approve}.     * Emits an {Approval} event indicating the updated allowance.     * Requirements:     * - `spender` cannot be the zero address."
      },
      "mint(address,uint256)": {
        "details": "See {ERC20-_mint}.     * Requirements:     * - the caller must have the {MinterRole}."
      },
      "name()": {
        "details": "Returns the name of the token."
      },
      "symbol()": {
        "details": "Returns the symbol of the token, usually a shorter version of the name."
      },
      "totalSupply()": {
        "details": "See {IERC20-totalSupply}."
      },
      "transfer(address,uint256)": {
        "details": "See {IERC20-transfer}.     * Requirements:     * - `recipient` cannot be the zero address. - the caller must have a balance of at least `amount`."
      },
      "transferFrom(address,address,uint256)": {
        "details": "See {IERC20-transferFrom}.     * Emits an {Approval} event indicating the updated allowance. This is not required by the EIP. See the note at the beginning of {ERC20};     * Requirements: - `sender` and `recipient` cannot be the zero address. - `sender` must have a balance of at least `amount`. - the caller must have allowance for `sender`'s tokens of at least `amount`."
      }
    }
  },
  "userdoc": {
    "methods": {}
  }
}